:100000000C9490000C94AF000C94AF000C94AF00D3
:100010000C94AF000C9427080C94AF000C94AF0024
:100020000C94AF000C94AF000C94AF000C94AF0094
:100030000C94AF000C94AF000C94AF000C945207DA
:100040000C946F030C94AF000C94AF000C94AF00B1
:100050000C94AF000C94AF000C94AF000C94AF0064
:100060000C94AF000C94AF000C94AF000C94AF0054
:100070000C94AF000C94AF000C94AF000C94AF0044
:100080000C94AF000C94AF000C94AF004C657472EC
:100090006F3A2053656C6563744170700030312095
:1000A0003A2044656D6F2020202020202000000091
:1000B000003032203A20536F756E6420546573749B
:1000C00020000000003033203A204F746865726FC2
:1000D0002020202020000000003034203A20544509
:1000E00054524953202020202000000000536F6606
:1000F0007452657365744D656E75202000004578F7
:1001000069743F202A4F4B20204E4F20202000456D
:100110007869743F20204F4B202A4E4F202020002A
:1001200011241FBECFEFD0E4DEBFCDBF12E0A0E0B0
:10013000B1E0E8E5FDE300E00BBF02C007900D92DF
:10014000A83FB107D9F714E0A8EFB2E001C01D92B3
:10015000AC33B107E1F70E947F050C94AA1E0C9402
:1001600000008F929F92AF92BF92CF92DF92EF9258
:10017000FF920F931F93DF93CF93CDB7DEB76897AE
:100180000FB6F894DEBF0FBECDBF80E060E071E037
:100190000E94A90281E061E171E00E94A9027E0152
:1001A0000894E11CF11CC7010E947D078E01035FCA
:1001B0001F4FC8010E947D078091F902882309F032
:1001C000C9C0CC248824DD249924AA24A394BB2468
:1001D000B3943DC08B81813009F455C08C8181304E
:1001E00009F47EC08D81813009F497C08E81813001
:1001F00009F49CC081E0B8010E9497078D85813089
:1002000009F451C08F85813009F461C0888981303B
:1002100009F470C08989813009F476C08A898130F7
:1002200009F48EC08B2D682D4C2D0E94E3038A2D7E
:10023000692D4D2D0E94E3038FE891E00197F1F7BE
:1002400000C000008091F902882309F083C080E09B
:10025000B7010E9497078981813009F0BBCF8F8158
:10026000882309F0B7CF8B2D813009F489C0823003
:1002700009F48CC0833009F0ADCFBB24B3948B81DB
:10028000813009F0ABCF8985882309F0A7CFCC2036
:1002900009F4B0CFCA9481E0B8010E9497078D8518
:1002A000813009F0AFCF8B89882309F0ABCF9A2D2D
:1002B000913009F462C0923009F465C0933009F0BE
:1002C000A1CFAA24A3948F85813009F09FCF8D8977
:1002D000882309F09BCFDD2009F4A4CFDA94A2CFC4
:1002E0008A85882309F07ECF9C2D9F3008F082CF2D
:1002F000C39480CF8E89882309F08CCF8D2D8F30C9
:1003000008F090CFD3948ECF8F89882309F086CFC1
:10031000992009F487CF9A9485CF8B85882309F09B
:1003200065CF882009F466CF8A9464CF8C858823B2
:1003300009F060CF882D8F3008F05CCF83945ACFBE
:10034000888D882309F06ECF992D9F3008F06ACFF1
:10035000939468CF68960FB6F894DEBF0FBECDBFFA
:10036000CF91DF911F910F91FF90EF90DF90CF9091
:10037000BF90AF909F908F90089592E0A92E42CFAA
:1003800032E0B32E27CF83E0A82E3CCF23E0B22E5D
:1003900021CF08950E949B1308950E94D8150895B7
:1003A0008FE59AEE0197F1F700C0000083E488B969
:1003B0004698EFE0F0E43197F1F700C0000088B90B
:1003C0004698EFE8F1E03197F1F700C0000088B9F6
:1003D00046988FE39CE90197F1F700C0000081E4A3
:1003E00088B94698EFE3FCE93197F1F700C00000C7
:1003F000089587B1807F87B990E698B986B188B1B2
:100400008F7988B998B986B188B18F7988B980E039
:1004100090E030E625E02A95F1F70000019638B922
:1004200026B128B12F7928B938B926B128B12F794A
:1004300028B922E08030920769F787B18F6787B9C2
:10044000089582E488B9469888E488B946980E945D
:10045000F901089590E498B94698886488B9469857
:100460000E94F901089580E488B9469881E488B92A
:1004700046980E94F901089580E488B9469886E478
:1004800088B946980E94F9010895982F929597701F
:10049000986498B946988F70806488B946980E948D
:1004A000F9010895982F92959F70906598B9469894
:1004B0008F70806588B9469880918E038F5F809396
:1004C0008E030E94F90108951F93CF93DF93EC01EF
:1004D0008881882351F010E00E9452021F5FFE01C4
:1004E000E10FF11D80818823B9F7DF91CF911F9132
:1004F0000895DC012C912223B9F020E02F5FFC014C
:10050000E20FF11D30813323C9F7DB019C91992360
:1005100069F080E090838F5FDB01A80FB11D9C9193
:100520009923C1F710820895FC01EFCF80E0FACF44
:1005300087B18F6787B90E94D0010E94210284E0B1
:100540000E942A020E9433020E943C0210928E03F3
:1005500008951F93CF93DF93EB018823A1F41092AA
:100560008E030E9445028881882349F0219610E17C
:100570000E9452028991882311F01150C9F7DF912E
:10058000CF911F910895813019F080918E03E9CFAA
:1005900080E480938E03E5CFF89480E587BD82E008
:1005A00084BD93E095BD80936E0078940895F8948F
:1005B00014BC10926E00789408952898289A089593
:1005C0002998299A0895882311F42A9808952A9A37
:1005D000089520E030E008C02A9A2898289A2F5FD2
:1005E0003F4F2031310589F0AC01022E02C05695F3
:1005F00047950A94E2F740FDEFCF2A982898289A69
:100600002F5F3F4F2031310579F70895803148F44D
:1006100020E030E802C0369527958A95E2F7C901B7
:10062000089520E030E8C9010895CF93DF93FC01DD
:100630006031E8F42091D2033091D303A62FB0E0CB
:10064000ED01CC0FDD1FC20FD31F888199818095EA
:100650009095918380835096AA0FBB1FA20FB31F62
:100660008D919C9111978095909593838283DF91D2
:10067000CF9108956091CF03603148F080E090E819
:100680009093D1038093D0031092CF0360E084ED68
:1006900093E00E9415038091D6039091D7030E94A6
:1006A000E9028091D4039091D5030E94E9028091E0
:1006B000D0039091D1030E94E9022998299A809150
:1006C000D0039091D103969587959093D103809311
:1006D000D0038091CF038F5F8093CF0308951F9243
:1006E0000F920FB60F920BB60F9211241F932F93F8
:1006F0003F934F935F936F937F938F939F93AF93AA
:10070000BF93EF93FF93F8941FB70E943A031FBF64
:100710007894FF91EF91BF91AF919F918F917F91CD
:100720006F915F914F913F912F911F910F900BBE51
:100730000F900FBE0F901F9018951F9310E20E940C
:100740003A031150E1F780E090E00E94E90280E076
:1007500090E00E94E90280E090E00E94E90280E0DF
:1007600090E00E94E9022998299A1F91089584B186
:10077000876084B9EFE8F3E0F093D303E093D2030A
:1007800080E090E89093D1038093D0031092CF0340
:100790001192119283E0EF3CF807D1F70E949D037C
:1007A000089580E090E89093D1038093D003109255
:1007B000CF03E091D203F091D30380E21192119222
:1007C0008150E1F70895CF93DF93882371F540318D
:1007D00048F5603138F5C091D203D091D303E42FAE
:1007E000F0E0DF01AA0FBB1FAC0FBD1F80E090E857
:1007F00002C0969587956A95E2F7809590952D9120
:100800003C9111972823392311963C932E9370968F
:10081000EE0FFF1FEC0FFD1F2081318128233923AC
:1008200031832083DF91CF910895813079F1823037
:1008300009F449C08330B1F74031A0F7603190F737
:10084000C091D203D091D303E42FF0E0DF01AA0FCF
:10085000BB1FAC0FBD1F80E090E802C09695879546
:100860006A95E2F72D913C911197282B392B11961F
:100870003C932E937096EE0FFF1FEC0FFD1F20810F
:100880003181282B392B31832083CCCF403150F656
:10089000603140F650E0440F551FA091D203B09153
:1008A000D303A40FB51F20E030E802C0369527958A
:1008B0006A95E2F78D919C911197822B932B11965B
:1008C0009C938E93AFCF403108F0ACCF603108F0ED
:1008D000A9CF50E0405F5F4F440F551FE091D20316
:1008E000F091D303E40FF51F20E030E802C0369505
:1008F00027956A95E2F780819181822B932B9183D2
:10090000808390CF8F929F92AF92BF92CF92DF92CF
:10091000EF92FF920F931F93E82EF62E142FD22EF4
:10092000922E961A97FC4EC0BB24B394A02EA11A07
:10093000A7FC44C0CC24C3948E2D6F2D412F0E9460
:10094000E303A9141CF10117B1F0990C8A2C8194CE
:10095000880CD12EDC0C10E0190D1A1514F0FB0CCC
:10096000180D8E2D6F2D4D2D0E94E303DC0C8D2D67
:100970008C19081789F71F910F91FF90EF90DF9066
:10098000CF90BF90AF909F908F900895DF1499F310
:10099000AA0C892C8194880CFB0C00E00A0D091527
:1009A00014F01C0D080D8E2D6F2D412F0E94E303B6
:1009B000FB0C8F2D8B19D81689F7DDCFA194CC2491
:1009C000CA94BACF9194BB24BA94B0CFCF93DF939B
:1009D000882309F446C018160CF046C0A82FBB2780
:1009E000A7FDB0952091D2033091D303F90150E1D6
:1009F000808191810A2E02C0880F991F0A94E2F724
:100A0000819391935150A1F716160CF044C0F9014F
:100A1000772767FD7095DB01AA0FBB1FA20FB31FDD
:100A200080E090E00AC01182108201963296129600
:100A30002E5F3F4F80319105A1F0AC01460F571F4B
:100A40004031510584F74D915C911197E90159832B
:100A500048830196329612962E5F3F4F8031910562
:100A600061F7DF91CF910895A82FBB27A7FDB0951F
:100A70002091D2033091D303F90140E1808191812B
:100A80000A2E02C0969587950A94E2F78193919376
:100A90004150A1F7B9CF462F552747FD50956FE03C
:100AA000862F90E0DC01A40FB51FB7FD15C0FC0137
:100AB000EE0FFF1FE20FF31FAA0FBB1FA20FB31F02
:100AC0008D919C91918380836150862F90E0DC0111
:100AD000A40FB51FB7FFEBCFFC01EE0FFF1FE20F16
:100AE000F31F118210826150F0CF8091D203909158
:100AF000D30308959093D3038093D20308950E9463
:100B000098020E94B7030E948C050E94F6070E947B
:100B10008B070E94B805FDCF1092E9030895DF937B
:100B2000CF930F92CDB7DEB789830E9403088981E6
:100B3000813091F0813030F40E94B1000F90CF915C
:100B4000DF910895823071F08330C1F70E94CD01AA
:100B50000F90CF91DF9108950E94C9010F90CF911E
:100B6000DF9108950E94CA010F90CF91DF910895FF
:100B7000CF92DF92EF92FF920F931F93DF93CF9369
:100B8000CDB7DEB768970FB6F894DEBF0FBECDBF06
:100B90008AEE93E06CE870E00E94891B80E06AEEC8
:100BA00073E00E94A9028AEE93E06DE970E00E9472
:100BB000891B81E06AEE73E00E94A9020E94050889
:100BC0008E010F5F1F4FC8010E947D072DE0E22EAE
:100BD000F12CEC0EFD1EC7010E947D0793E0D92E7B
:100BE00082E0C82E8091F902882309F041C080E09C
:100BF000B8010E9497078981813009F459C08B811F
:100C0000813009F461C08C81813009F4AFC081E08A
:100C1000B7010E9497078D85813009F47CC08F85CC
:100C2000813009F484C088898130E1F69E89992356
:100C3000C9F69091E903992309F4D3C0913009F4DE
:100C400087C0923009F4B1C0933061F61092E90385
:100C50008AEE93E06DE970E00E94891B81E06AEE04
:100C600073E00E94A9028091F902882309F4BFCFA2
:100C70008AEE93E06CE870E00E94891B80E06AEEE7
:100C800073E00E94A9028AEE93E06DE970E00E9491
:100C9000891B81E06AEE73E00E94A9021092F902BA
:100CA00080E0B8010E9497078981813009F0A7CFC1
:100CB0008F81882309F0A3CF8091E9030E948F05DB
:100CC0008B81813009F09FCF9985992309F09BCFC3
:100CD0009091E903992309F476C0913009F457C043
:100CE000923009F48CC0933009F091CFC092E9039F
:100CF0008AEE93E065EC70E00E94891B81E06AEE69
:100D000073E00E94A90281E0B7010E9497078D85D8
:100D1000813009F084CF8B89882309F080CF8091BE
:100D2000E9030E948F058F85813009F07CCF9D8972
:100D3000992309F078CF9091E9039923B1F191308B
:100D400009F484CF923009F44CC0933009F04ACFB3
:100D5000C092E9038AEE93E065EC70E00E94891B83
:100D600081E06AEE73E00E94A9023CCF9A85992344
:100D700009F04DCF9091E903992309F440C09130D7
:100D800009F4B4CF9230F9F0933009F040CF1092CB
:100D9000E9038AEE93E06DE970E00E94891B81E02F
:100DA0006AEE73E00E94A90232CFD092E9038AEE84
:100DB00093E069ED70E00E94891B81E06AEE73E0C8
:100DC0000E94A9020FCFD092E9038AEE93E069ED69
:100DD00070E00E94891B81E06AEE73E00E94A90224
:100DE00016CF8093E9038AEE93E061EB70E00E94F6
:100DF000891B81E06AEE73E00E94A902F3CE809322
:100E0000E9038AEE93E061EB70E00E94891B81E0C8
:100E10006AEE73E00E94A902FACE8AB180638AB9B1
:100E20001092800085E0809381000895EFE6F0E065
:100E300080818E7F80838BB18F7C8BB90895809168
:100E4000FB0308950F931F93182F062F843FC0F4C0
:100E500040E050E088E120E02093FC03809F002DDB
:100E600011240093FB035093850040938400B09AB3
:100E700080916F00816080936F001F910F910895A2
:100E8000282F30E040E050E064E274EF80E090E032
:100E90000E94D6192195812F6AE00E94A319422F42
:100EA00050E0DACF1F920F920FB60F9211242F93BA
:100EB0008F939F932FB78091FC0390E090938500D0
:100EC000809384008BB190E189278BB95C990CC029
:100ED0008091FB0381508093FB03882329F4809148
:100EE0006F008E7F80936F002FBF9F918F912F9106
:100EF0000F900FBE0F901F901895FC011082118269
:100F0000128213821482158216821782108611862D
:100F100012861386089581B111B88AB183738AB994
:100F200082B18FEF82B98BB18C6C8BB90895FB01C4
:100F30009081968391819783928190879381918705
:100F400094819287958193878823A9F4019916C08B
:100F500081E08083009B15C01182029B16C0128223
:100F6000039B17C01382049B18C01482059919C0F3
:100F700081E0858308958130B1F008951082009951
:100F8000EBCF81E081830299EACF81E082830399EC
:100F9000E9CF81E083830499E8CF81E08483059BD6
:100FA000E7CF15820895069B13C0108207991BC0D6
:100FB00081E081834B9B14C012824A9B0EC0138236
:100FC0004E9B08C014824F99ECCF81E08583089531
:100FD0008083ECCF81E08483F6CF81E08383F0CF00
:100FE00081E08283EACF1182E5CF089524982C9A7C
:100FF000E8E6F0E0808182608083ECE6F0E08081CA
:1010000080618083089578940895ECE6F0E0808113
:101010008F7E80830895CF93DF93CDEFD3E0CE0111
:101020006DEE70E00E94891B80E0BE010E94A90263
:10103000CE016EEF70E00E94891B81E0BE010E942C
:10104000A90281E08093F902DF91CF9108951F9268
:101050000F920FB60F920BB60F9211241F932F937E
:101060003F934F935F936F937F938F939F93AF9330
:10107000BF93EF93FF931FB78FE99FE00197F1F7BD
:1010800000C000000E940B0878941FBFFF91EF91F1
:10109000BF91AF919F918F917F916F915F914F9190
:1010A0003F912F911F910F900BBE0F900FBE0F908D
:1010B0001F9018950F930E94CC0280E062E271E0CD
:1010C0000E94A90281E0809362038093550367E048
:1010D00047E00E94E30381E068E048E00E94E30308
:1010E00082E0809361038093560367E048E00E94AA
:1010F000E30382E068E047E00E94E30383E080933B
:101100002E0364E044E00E94E30384E090E09093C7
:101110001A0480931904909314048093130483E0B9
:1011200063E043E02CE003E00E94820483E063E09C
:101130004CE02CE00CE00E94820483E063E043E09A
:1011400023E00E94820483E06CE043E02CE00E94F4
:10115000820410922404109223040F91089520E039
:1011600030E0F901EE0FFF1FE20FF31FEE0FFF1F3C
:10117000EE0FFF1FE650FD4F80E090E011920196C8
:1011800080319105D9F72F5F3F4F2031310549F765
:1011900008954091190450911A04609113047091BC
:1011A0001404FA01EE0FFF1FE40FF51FEE0FFF1FEF
:1011B000EE0FFF1FE60FF71FE650FD4F809123044F
:1011C000808380E00E94E3038091230460911304F4
:1011D000409119040E94E303609113047091140478
:1011E0006B3071051CF184E090E0909314048093BF
:1011F00013044091190450911A04FA01EE0FFF1FD5
:10120000E40FF51FEE0FFF1FEE0FFF1FE650FD4F1F
:101210008481992787FD90959093240480932304DB
:1012200083E0848364E00E94E30308956F5F7F4F4F
:1012300070931404609313044091190450911A049C
:10124000FA01EE0FFF1FE40FF51FEE0FFF1FEE0F69
:10125000FF1FE60FF71FE650FD4F8081992787FD9E
:101260009095909324048093230483E080830E94CC
:10127000E30308954091190450911A0460911304F6
:1012800070911404FA01EE0FFF1FE40FF51FEE0F2B
:10129000FF1FEE0FFF1FE60FF71FE650FD4F809177
:1012A0002304808380E00E94E30380912304609103
:1012B0001304409119040E94E30360911304709198
:1012C0001404653071051CF58BE090E090931404D4
:1012D000809313044091190450911A04FA01EE0FFF
:1012E000FF1FE40FF51FEE0FFF1FEE0FFF1FE6506D
:1012F000FD4F8385992787FD9095909324048093D3
:10130000230483E083876BE00E94E3030895615028
:101310007040709314046093130440911904509129
:101320001A04FA01EE0FFF1FE40FF51FEE0FFF1F67
:10133000EE0FFF1FE60FF71FE650FD4F8081992744
:1013400087FD9095909324048093230483E0808309
:101350000E94E30308954091190450911A0460918A
:10136000130470911404FA01EE0FFF1FE40FF51F30
:10137000EE0FFF1FEE0FFF1FE60FF71FE650FD4FAA
:1013800080912304808380E00E94E3038091230402
:1013900060911304409119040E94E30340911904E1
:1013A00050911A0445305105DCF48BE090E09093A5
:1013B0001A04809319046091130470911404FB01C2
:1013C000E258FC4F8081992787FD909590932404E3
:1013D0008093230483E080834BE00E94E30308951D
:1013E0004150504050931A044093190460911304E3
:1013F00070911404FA01EE0FFF1FE40FF51FEE0FBA
:10140000FF1FEE0FFF1FE60FF71FE650FD4F808115
:10141000992787FD9095909324048093230483E07B
:1014200080830E94E30308954091190450911A04A7
:101430006091130470911404FA01EE0FFF1FE40F82
:10144000F51FEE0FFF1FEE0FFF1FE60FF71FE65011
:10145000FD4F80912304808380E00E94E30380910C
:10146000230460911304409119040E94E303409106
:10147000190450911A044B305105DCF084E090E0DF
:1014800090931A04809319046091130470911404CA
:10149000FB01E650FD4F80A9992787FD9095909319
:1014A00024048093230483E080AB44E00E94E303A0
:1014B00008954F5F5F4F50931A0440931904609151
:1014C000130470911404FA01EE0FFF1FE40FF51FCF
:1014D000EE0FFF1FEE0FFF1FE60FF71FE650FD4F49
:1014E0008081992787FD909590932404809323040D
:1014F00083E080830E94E303089580918A039091A2
:101500008B03019690938B0380938A0380FD06C022
:1015100080E062E271E00E94A902089580E063E346
:1015200071E00E94A9020895CF92DF92EF92FF929C
:101530000F931F93DF93CF93CDB7DEB768970FB6A6
:10154000F894DEBF0FBECDBF10921E0410921D0492
:1015500000E010E0EE24FF2420E030E010921604BA
:101560001092150480E090E017C080E065E274E01E
:101570000E94A9020F5F1F4F8091150490911604DD
:101580000196909316048093150488309105FCF41D
:1015900020911D0430911E042C5F3F4FF901EE0F86
:1015A000FF1FE20FF31FEE0FFF1FEE0FFF1FE650AE
:1015B000FD4FE80FF91F84818230B9F680E065E2C3
:1015C00074E00E94A9020894E11CF11CD5CF20917F
:1015D0001D0430911E042F5F3F4F30931E04209353
:1015E0001D04283031050CF4B9CF00D000D000D054
:1015F000EDB7FEB7319645E2C42E44E0D42EADB728
:10160000BEB71296DC92CE92119784E491E0938358
:101610008283F582E4820E94901B8DB79EB7069666
:101620000FB6F8949EBF0FBE8DBF80E0B6010E943A
:10163000A90200D000D000D0EDB7FEB73196ADB70B
:10164000BEB71296DC92CE92119786E591E0938315
:101650008283158304830E94901B8DB79EB70696E4
:101660000FB6F8949EBF0FBE8DBF81E0B6010E94F9
:10167000A9028E010F5F1F4FC8010E947D073DE048
:10168000E32EF12CEC0EFD1EC7010E947D0781E0C8
:10169000B8010E9497078B818130B1F18C81813034
:1016A00009F458C08D81813009F45BC08E8181308E
:1016B00009F45EC08981813009F461C08A8181307A
:1016C00009F464C080E0B7010E9497078F858130DC
:1016D00029F18889813041F18989813059F18A89DC
:1016E000813071F18D85813089F18E85813079F677
:1016F0008C89882361F60E949B1381E0B8010E94C7
:1017000097078B81813051F68985882339F680E0EF
:10171000B7010E9497078F858130D9F68D8988237C
:1017200051F388898130C1F68E89882321F3898914
:101730008130A9F68F898823F1F28A89813091F668
:10174000888D8823C1F28D85813079F68B89882335
:1017500061F6D1CF8A85882309F0A4CF0E949B131C
:10176000B1CF8B858823D1F38E81813009F0A2CF50
:101770008C85882399F38981813009F09FCF8F81EF
:10178000882361F38A81813009F09CCF8885882382
:1017900009F098CF0E949B1395CFFF920F931F9350
:1017A000CF93DF93E0911304F0911404BF01F09301
:1017B0001804E0931704F0932204E093210420918D
:1017C000190430911A043093200420931F0430939D
:1017D00037042093360480912304909124040097C9
:1017E00009F006C22C3031050CF0BEC0A9014F5FD4
:1017F0005F4FDA01AA0FBB1FA40FB51FAA0FBB1FB3
:10180000AA0FBB1FAE0FBF1FA650BD4FAC91AA239E
:1018100009F4AAC08091CD019091CE01BB27A7FD0C
:10182000B095A817B90709F49FC02B30310509F40A
:101830009BC0C1E0D0E031C09A01309337042093BF
:1018400036042C3031050CF08BC0A9014F5F5F4F7F
:10185000DA01AA0FBB1FA40FB51FAA0FBB1FAA0F47
:10186000BB1F8091210490912204A80FB91FA6509C
:10187000BD4FAC91AA2309F473C08091CD01909122
:10188000CE01BB27A7FDB095A817B90709F468C01A
:101890002B30310509F464C0BF012E5F3F4FD901E1
:1018A000AA0FBB1FA20FB31FAA0FBB1FAA0FBB1FFC
:1018B000AE0FBF1FA650BD4F2C91332727FD30958B
:1018C0008217930709F0B8CF9A0140911F045091F5
:1018D0002004241735072CF437C06091130470914D
:1018E0001404FA01EE0FFF1FE40FF51FEE0FFF1FA8
:1018F000EE0FFF1FE60FF71FE650FD4F8091CD0161
:10190000808380E00E94E3038091CD016091130405
:1019100040911F040E94E30340911F045091200452
:101920004F5F5F4F5093200440931F042091360473
:10193000309137042F5F3F4F2417350774F66091BD
:10194000130470911404FB01D0931204C09311048A
:1019500030933704209336042C3031050CF475CFC6
:101960002091190430911A04F0932204E093210489
:10197000F0931804E093170430933704209336044F
:101980003093200420931F04253031050CF43AC114
:10199000C9010197DC01AA0FBB1FA80FB91FAA0F2D
:1019A000BB1FAA0FBB1FAE0FBF1FA650BD4F4C9150
:1019B000442309F427C1A091CD01B091CE01552750
:1019C00047FD50954A175B0709F41CC125303105C6
:1019D00009F418C101E010E033C09C019093370472
:1019E00080933604853091050CF408C1AC01415058
:1019F0005040DA01AA0FBB1FA40FB51FAA0FBB1FCF
:101A0000AA0FBB1FC0912104D0912204AC0FBD1FAF
:101A1000A650BD4FFC90FF2009F4F0C0A091CD016D
:101A2000B091CE01CF2DDD27C7FDD095CA17DB07BA
:101A300009F4E4C08530910509F4E0C0BF01CA0192
:101A400022503040E901CC0FDD1FC20FD31FCC0F55
:101A5000DD1FCC0FDD1FCE0FDF1FC650DD4F2881ED
:101A6000332727FD3095A217B30709F0B6CF409171
:101A70001F0450912004481759072CF436C0609178
:101A8000130470911404FA01EE0FFF1FE40FF51F09
:101A9000EE0FFF1FEE0FFF1FE60FF71FE650FD4F83
:101AA0008091CD01808380E00E94E3038091CD018D
:101AB0006091130440911F040E94E30340911F04AE
:101AC00050912004415050405093200440931F04F3
:101AD00080913604909137040197481759077CF696
:101AE0006091130470911404FB011093120400938D
:101AF000110473CF809111049091120481309105EB
:101B000009F076C080918A0390918B03019690939F
:101B10008B0380938A0320918C0330918D032F5F78
:101B20003F4F30938D0320938C0380FDF7C580E0F9
:101B300062E271E00E94A90280918C0390918D0372
:101B40008C3391050CF0F0C54091190450911A04A2
:101B50006091130470911404FA01EE0FFF1FE40F5B
:101B6000F51FEE0FFF1FEE0FFF1FE60FF71FE650EA
:101B7000FD4F8091CD01808380E00E94E30380913E
:101B8000CD0160911304409119040E94E303409138
:101B9000190450911A046091130470911404FA010D
:101BA000EE0FFF1FE40FF51FEE0FFF1FEE0FFF1FDD
:101BB000E60FF71FE650FD4F8081992787FD90952E
:101BC000909324048093230483E0808380E00E9428
:101BD000E3038091CD0160911304409119040E94A8
:101BE000E30383E060911304409119040E94E3032E
:101BF000DF91CF911F910F91FF90089520911904CB
:101C000030911A04F0932204E0932104F093180415
:101C1000E0931704A90130933704209336043093DE
:101C2000200420931F04EC30F1050CF0BEC0C90164
:101C3000880F991FDC01A20FB31FAA0FBB1FAA0FA9
:101C4000BB1FA650BD4FAE0FBF1F11960C91119731
:101C5000002309F4AAC0A091CD01B091CE01C02FFC
:101C6000DD27C7FDD095CA17DB0709F49EC0EB300E
:101C7000F10509F49AC0C1E0D0E032C06F5F7F4F38
:101C800070932204609321046C3071050CF089C0BC
:101C90008091360490913704FC01EE0FFF1FE80F8E
:101CA000F91FEE0FFF1FEE0FFF1FE650FD4FE60F6F
:101CB000F71F8181882309F474C0A091CD01B091F0
:101CC000CE01992787FD90958A179B0709F469C073
:101CD0006B30710509F465C0A901C901880F991F0E
:101CE000FC01E20FF31FEE0FFF1FEE0FFF1FE65088
:101CF000FD4FE60FF71FE281FF27E7FDF095AE17D6
:101D0000BF0709F0BBCF6F5F7F4FE0911704F091E1
:101D100018046E177F0744F438C04091190450919D
:101D20001A04CA01880F991F840F951F880F991FE5
:101D3000880F991F8E0F9F1F86509D4F2091CD01B8
:101D4000DC012C9380E06E2F0E94E3038091CD0193
:101D500060911704409119040E94E303E091170475
:101D6000F09118043196F0931804E09317046091F1
:101D70002104709122046F5F7F4F6E177F076CF60E
:101D80004091190450911A049A01D0931204C093FF
:101D9000110470932204609321046C3071050CF4DB
:101DA00077CFE0911304F0911404DF01F093220443
:101DB000E0932104F0931804E09317043093370460
:101DC000209336043093200420931F041E161F0610
:101DD0000CF0BEC0C901880F991FEC01C20FD31FC0
:101DE000CC0FDD1FCC0FDD1FCE0FDF1FC750DD4F27
:101DF0000881002309F4ACC06091CD017091CE013F
:101E0000C02FDD27C7FDD095C617D70709F4A0C09E
:101E1000E630F1050CF49CC0EF0101E010E033C0A6
:101E20001197ED01B0932204A09321041A161B060A
:101E30000CF08AC08091360490913704FC01EE0FBB
:101E4000FF1FE80FF91FEE0FFF1FEE0FFF1FEC0F34
:101E5000FD1FE750FD4F8081882309F475C0609114
:101E6000CD017091CE01992787FD90958617970730
:101E700009F46AC0C630D1050CF466C0A901DE01C0
:101E8000C901880F991FFC01E20FF31FEE0FFF1F1E
:101E9000EE0FFF1FEC0FFD1FE850FD4FE081FF2705
:101EA000E7FDF0956E177F0709F0BACF6091170430
:101EB0007091180411976A177B0744F438C0409159
:101EC000190450911A04CA01880F991F480F591F0D
:101ED000440F551F440F551F460F571F46505D4F67
:101EE0008091CD01EA01888380E040911F040E9427
:101EF000E3038091CD016091170440911F040E947B
:101F0000E30360911704709118046150704070935E
:101F1000180460931704A0912104B0912204119732
:101F20006A177B0764F62091190430911A04109304
:101F3000120400931104ED01B0932204A093210434
:101F40001A161B060CF476CFE0911304F0911404DA
:101F5000BF01F0932204E0932104F0931804E0936E
:101F600017043093370420933604309320042093D1
:101F70001F04EC30F1050CF0E6C02C3031050CF0FC
:101F8000E2C0D9011196ED01CC0FDD1FCA0FDB1F96
:101F9000CC0FDD1FCC0FDD1FC650DD4FCE0FDF1F76
:101FA0008981882309F4CFC04091CD015091CE01A1
:101FB000992787FD90958417950709F4C4C02B30A5
:101FC000310509F4C0C0EB30F10509F4BCC0CF0104
:101FD000C1E0D0E03AC0CB0101969D01909322046C
:101FE0008093210430933704209336048C3091057C
:101FF0000CF0A1C02C3031050CF09DC0D901119618
:10200000FD01EE0FFF1FEA0FFB1FEE0FFF1FEE0F8C
:10201000FF1FE650FD4FE80FF91F6181662309F4A9
:102020008AC04091CD015091CE01772767FD709510
:102030006417750709F47FC02B30310509F47BC0A4
:102040008B30910509F477C0BC012E5F3F4FF90139
:10205000EE0FFF1FE20FF31FEE0FFF1FEE0FFF1F2C
:10206000E650FD4FE80FF91F8281992787FD909573
:102070004817590709F0AFCFCB01019660911704BB
:1020800070911804861797070CF451C39D01409175
:102090001F0450912004A417B50754F447C02091A1
:1020A0003604309137042F5F3F4F24173507F4F182
:1020B000FA01EE0FFF1FE40FF51FEE0FFF1FEE0FEB
:1020C000FF1FE60FF71FE650FD4F8091CD01808383
:1020D00080E00E94E3038091CD016091170440915C
:1020E0001F040E94E30360911704709118046F5F4E
:1020F0007F4F709318046093170440911F04509110
:1021000020044F5F5F4F5093200440931F04809141
:102110002104909122040196861797070CF0BFCFF7
:1021200020913604309137042F5F3F4FD093120433
:10213000C093110453CFE0911304F0911404209143
:10214000190430911A04AF01F0932204E0932104A2
:10215000F0931804E0931704309337042093360467
:102160003093200420931F041E161F060CF0E6C0B7
:10217000121613060CF0E2C0C9010197DC01AA0F88
:10218000BB1FA80FB91FAA0FBB1FAA0FBB1FAE0F03
:10219000BF1FA750BD4FAC91AA2309F4CFC06091D7
:1021A000CD017091CE01BB27A7FDB095A617B7074B
:1021B00009F4C4C0263031050CF4C0C0E630F10586
:1021C0000CF4BCC0C1E0D0E03CC09A0121503040CA
:1021D000A90130932204209321049C019093370499
:1021E00080933604141615060CF0A0C018161906B4
:1021F0000CF09CC0DC011197FD01EE0FFF1FEA0FF0
:10220000FB1FEE0FFF1FEE0FFF1FE40FF51FE75040
:10221000FD4FE081EE2309F489C06091CD017091FA
:10222000CE01FF27E7FDF095E617F70709F47EC01A
:10223000863091050CF47AC0463051050CF476C016
:10224000CD0122503040F901EE0FFF1FE20FF31FC6
:10225000EE0FFF1FEE0FFF1FE40FF51FE850FD4FBD
:102260002081332727FD30956217730709F0ADCF22
:1022700060911704709118049A0121503040621740
:1022800073070CF44EC040911F045091200448176E
:1022900059074CF446C08091360490913704019759
:1022A00048175907F4F1FA01EE0FFF1FE40FF51F6D
:1022B000EE0FFF1FEE0FFF1FE60FF71FE650FD4F5B
:1022C0008091CD01808380E00E94E3038091CD0165
:1022D0006091170440911F040E94E303609117046A
:1022E0007091180461507040709318046093170443
:1022F00040911F04509120044150504050932004BD
:1023000040931F0420912104309122042150304039
:10231000621773070CF0BFCF809136049091370499
:102320000197D0931204C093110452CFE09113048B
:10233000F09114042091190430911A04DF01F093F4
:102340002204E0932104F0931804E0931704C901D8
:1023500030933704209336043093200420931F04D5
:102360001E161F060CF0E9C02C3031050CF0E5C03C
:10237000A9014F5F5F4FEA01CC0FDD1FC40FD51FCE
:10238000CC0FDD1FCC0FDD1FCE0FDF1FC750DD4F81
:102390000881002309F4D1C06091CD017091CE0174
:1023A000C02FDD27C7FDD095C617D70709F4C5C0D4
:1023B0002B30310509F4C1C0E630F1050CF4BDC085
:1023C0009F01C1E0D0E03CC0CA019D0121503040D6
:1023D0003093220420932104909337048093360491
:1023E000121613060CF0A1C08C3091050CF09DC0A4
:1023F000AC014F5F5F4FFA01EE0FFF1FE40FF51FB7
:10240000EE0FFF1FEE0FFF1FE20FF31FE750FD4F10
:10241000E081EE2309F489C06091CD017091CE0175
:10242000FF27E7FDF095E617F70709F47EC08B302C
:10243000910509F47AC0263031050CF476C0D90133
:102440000296FC01EE0FFF1FE80FF91FEE0FFF1FB2
:10245000EE0FFF1FE20FF31FE850FD4F8081992719
:1024600087FD90956817790709F0AECF6091170442
:10247000709118049D0121503040621773070CF4CD
:1024800058C1CA0140911F04509120048417950738
:102490004CF446C08091360490913704019684171D
:1024A0009507F4F1FA01EE0FFF1FE40FF51FEE0F91
:1024B000FF1FEE0FFF1FE60FF71FE650FD4F809145
:1024C000CD01808380E00E94E3038091CD01609183
:1024D000170440911F040E94E30360911704709158
:1024E0001804615070407093180460931704409171
:1024F0001F04509120044F5F5F4F5093200440937E
:102500001F04209121043091220421503040621791
:1025100073070CF0BFCF8091360490913704019679
:10252000D0931204C093110453CFE0911304F0919F
:1025300014042091190430911A04BF01F09322046D
:10254000E0932104F0931804E093170430933704C8
:10255000209336043093200420931F04EC30F105BF
:102560000CF0C8CA121613060CF0C4CAD901119790
:10257000FD01EE0FFF1FEA0FFB1FEE0FFF1FEE0F17
:10258000FF1FE650FD4FE60FF71F8181882309F4F6
:10259000B1CA4091CD015091CE01992787FD909508
:1025A0008417950709F4A6CA263031050CF4A2CA8F
:1025B0006B30710509F49ECACB0101E010E03CC00C
:1025C000CB01019690932204809321049D01B09346
:1025D0003704A09336048C3091050CF08BCA1A1680
:1025E0001B060CF087CAFD013197AF01440F551F40
:1025F0004E0F5F1F440F551F440F551F46505D4F30
:10260000480F591FEA016981662309F473CA409192
:10261000CD015091CE01772767FD7095641775073E
:1026200009F468CAA630B1050CF464CA8B30910570
:1026300009F460CABC01DF0122503040F901EE0FFD
:10264000FF1FE20FF31FEE0FFF1FEE0FFF1FE650FD
:10265000FD4FE80FF91F8281992787FD9095481754
:10266000590709F0ADCFCB01019660911704709125
:102670001804861797070CF44CC040911F04509122
:1026800020044A175B074CF444C0A0913604B09173
:10269000370411974A175B07E4F1FA01EE0FFF1FA9
:1026A000E40FF51FEE0FFF1FEE0FFF1FE60FF71FE2
:1026B000E650FD4F8091CD01808380E00E94E303CE
:1026C0008091CD016091170440911F040E94E303A3
:1026D00060911704709118046F5F7F4F7093180416
:1026E0006093170440911F045091200441505040C2
:1026F0005093200440931F04809121049091220460
:102700000196861797070CF6A0913604B09137040E
:102710001197109312040093110454CF80E063E3E7
:1027200071E00E94A90208CA0E94940A0DCA9D0184
:10273000FDCCCA01F5CEAF92BF92CF92DF92EF925D
:10274000FF920F931F93DF93CF93CDB7DEB76897B8
:102750000FB6F894DEBF0FBECDBF7E010894E11C1A
:10276000F11CC7010E947D079DE0C92ED12CCC0E23
:10277000DD1EC6010E947D070E945A0800E010E09D
:1027800082E0A82EB12C3CC08C81813009F483C03A
:102790008D81813009F497C08E81813009F49FC00A
:1027A0008981813009F4B3C08A81813009F4C7C0BE
:1027B00080E0B6010E9497078F85813009F453C0ED
:1027C0008889813009F45BC08989813009F46FC040
:1027D0008A89813009F48FC08D85813009F4A3C0C6
:1027E0008E85813009F4B7C080918A0390918B0364
:1027F000B5010E94C31901969093CE018093CD013B
:1028000010921C0410921B041092120410921104D6
:1028100085E08A95F1F700000F5F1F4F8FE0003AC7
:10282000180709F4AEC085E10C37180709F49FC0FA
:1028300081E0B7010E9497078B81813009F0A4CF16
:102840008985882309F0A0CF0E94AB0981E067E663
:1028500071E00E94A90280E0B6010E9497078F856F
:10286000813009F0ADCF8D89882309F0A9CF0E946E
:10287000AB0981E067E671E00E94A902B5CF8E89BD
:10288000882309F0A1CF0E94140A81E068E771E073
:102890000E94A902A9CF8A85882309F079CF0E94D6
:1028A000140A81E068E771E00E94A90281CF8F8954
:1028B000882309F08DCF0E943A0981E069E871E030
:1028C0000E94A90291CF8B85882309F065CF0E94D1
:1028D0003A0981E069E871E00E94A90269CF8C851C
:1028E000882309F05DCF0E94C90881E06AE971E0A0
:1028F0000E94A9025DCF888D882309F06DCF0E94C8
:10290000C90881E06AE971E00E94A9026DCF8F8158
:10291000882309F049CF0E94CD0B81E06BEA71E07A
:102920000E94A90245CF8B89882309F059CF0E94C4
:10293000CD0B81E06BEA71E00E94A90255CF88853A
:10294000882309F035CF0E947D0A81E06CEB71E0AD
:102950000E94A9022DCF8C89882309F045CF0E94BF
:102960007D0A81E06CEB71E00E94A9023DCF83E01B
:1029700060911304409119040E94E30300E010E009
:1029800057CF80E060911304409119040E94E30343
:102990008091230460911304409119040E94E30381
:1029A00047CF8F929F92AF92BF92CF92DF92EF92DA
:1029B000FF920F931F93CF93DF936C01DB01ED9098
:1029C000FC901197E701AA80BB808824992420E01D
:1029D00030E0A4014A0D5B1DF401EE0FFF1FEE0F66
:1029E000FF1FEE0FFF1F3696EE0DFF1D80E090E0FB
:1029F0008A01000F111FBA01660F771F660F771F3C
:102A0000660F771F060F171F57FD46C0E601A88106
:102A1000B98114966D917C91159746175707E4F587
:102A2000E70168817981680F791F77FD35C01296BB
:102A30000D90BC91A02D6A177B0774F5600F711F74
:102A4000685E7F4F660F771F6E0D7F1DDB016D91F6
:102A50007C91119761157105F9F460E070E0262B07
:102A6000372B019632968430910571F60894811CBB
:102A7000911CE4E08E16910409F0ABCFC901DF91FF
:102A8000CF911F910F91FF90EF90DF90CF90BF906B
:102A9000AF909F908F90089561E070E0A081B18128
:102AA0001097E9F6DACFCF92DF92EF92FF920F9371
:102AB0001F93DF93CF93CDB7DEB7A0970FB6F894EF
:102AC000DEBF0FBECDBFFC014081518120E030E070
:102AD0006E010894C11CD11C03E010E0D901AA0FBB
:102AE000BB1FAA0FBB1FAA0FBB1FAC0DBD1D80E0F3
:102AF00090E07801E21AF30A77FD52C06115710582
:102B0000A1F0F801E81BF90BEE0FFF1FEE0FFF1FFE
:102B1000E20FF31F3396EE0FFF1FE40FF51F019036
:102B2000F081E02D1196FC93EE930196129684307D
:102B3000910511F72F5F3F4F2430310579F6F601EB
:102B4000DA019E012F5D3F4F8081918117969C9302
:102B50008E9316978281938119969C938E931897E2
:102B6000848195811B969C938E931A978681978179
:102B70001D969C938E931C9738961896E217F30730
:102B800019F7A0960FB6F894DEBF0FBECDBFCF9158
:102B9000DF911F910F91FF90EF90DF90CF900895FC
:102BA000FC01EE0FFF1FEE0FFF1FEE0DFF1DB2CF5A
:102BB0002F923F924F925F926F927F928F929F924D
:102BC000AF92BF92CF92DF92EF92FF920F931F933B
:102BD000DF93CF93CDB7DEB7E6970FB6F894DEBF9D
:102BE0000FBECDBF86E090E00E94F8193C0188E05E
:102BF00090E00E94F8198C01D3018D939C9386E09C
:102C000090E00E94F819F3018283938380E791E0BA
:102C10000E94F819D30114968C93149715969C93DF
:102C200050E1E52EF12CF801F182E082F382E2829C
:102C300082E090E095838483F782E6820E94CC0252
:102C400086B590E00E947E1BD3011296ED91FC9117
:102C500013978CE390E091838083F582E4828AE08D
:102C600090E09383828314960D911C9115970E9496
:102C7000791B67E070E00E94C319F8019583848393
:102C8000D3011496ED90FC90159781E090E0F70148
:102C900093A782A715A614A617A616A617A216A272
:102CA00011A610A620E030E0C901880F991F880FF7
:102CB000991FFC01EE0FFF1FEE0FFF1FE80FF91F1A
:102CC000F096EE0DFF1D8AE090E0119211920197AF
:102CD000E1F72F5F3F4F2031310531F71E01089496
:102CE000211C311C94E0892E912C860C971C82E0CB
:102CF000C82ED12CC60CD71CFE01BD96FEABEDAB89
:102D0000D7019C968D919C919D97009709F0F6C2F2
:102D1000D7019E968D919C919F9701969F969C932B
:102D20008E939E979A968D919C919B97009709F40C
:102D300064C09F961C921E929E979B961C921E9218
:102D40009A97E3E0F0E01196FC93EE9313961C92B1
:102D50001E9212971496ED91FC911597EE0FFF1F9E
:102D6000E295F295F07FFE27E07FFE27E25FFD4FC0
:102D700084E090E02081318117963C932E93169742
:102D80002281338119963C932E93189724813581A3
:102D90001B963C932E931A97268137811D963C9360
:102DA0002E931C97019738961896009719F7C6012D
:102DB000B4010E94D114009709F42BC28E010F5F59
:102DC0001F4F8CE0D8011D928A95E9F7C8010E9437
:102DD0007D0781E06FEC71E00E94A90280E064EE63
:102DE00071E00E94A90281E069EF71E00E94A902EE
:102DF00081E0B8010E949707FBCFD101ECE01D9262
:102E0000EA95E9F7C1010E947D0781E0B1010E94C6
:102E100097078D81882309F06DC2442455248E8143
:102E2000882319F071E0472E512C0C818981882369
:102E300019F48A81882361F0C40161E070E00E9486
:102E40005315C601B4010E94D114009709F071C254
:102E5000002309F4C9C1D3011296AD90BC90139719
:102E60001496ED90FC901597D7019F961C921E9298
:102E70009E9721E030E0F70100811181040D151DBE
:102E800011830083C601B4012BAB3CAB0E94D1146B
:102E90002BA93CA9009741F004191509D7011196F7
:102EA0001C930E93442455242115310509F4E1C0E7
:102EB000F70102811381C801019693838283C601C1
:102EC000B4010E94D114009709F4D3C0D70113961E
:102ED0001C930E9312974114510409F0CAC04D90EF
:102EE0005C9020E030E0D901AA0FBB1FAA0FBB1FE6
:102EF000AA0FBB1F1696AE0DBF1DC901800F911FF3
:102F0000FC01EE0FFF1F880F991F880F991F880F74
:102F1000991FE80FF91FE40DF51D7896EE0FFF1FBE
:102F2000EE0DFF1D44E050E06D917D918081918117
:102F3000862B972B8193919341505040A9F72F5F97
:102F40003F4F2430310579F6F501448055809201D8
:102F5000215030403EA72DA700E010E0A701405DC2
:102F60005F4F58AB4FA7C20102979AAB89AB0415CC
:102F700015050CF077C08DA59EA5801B910BA4E1D3
:102F8000B0E08A9FB0018B9F700D9A9F700D112445
:102F9000F701E60FF71F20A931A9F50142815381FE
:102FA0004230510574F0FB01F296EE0DFF1D81E0F9
:102FB00090E061917191262337230196841795073C
:102FC000C1F72115310509F44AC02DA53EA5021708
:102FD0001307B4F569A97AA9601B710B14161506BD
:102FE0004CF5CB01880F991F880F991FDC01AA0FA0
:102FF000BB1FAA0FBB1FA80FB91FD096AE0DBF1DD8
:10300000CB010196880F991F880F991FFC01EE0FC5
:10301000FF1FEE0FFF1FE80FF91FF096EE0DFF1DCB
:1030200080E090E02D913D9121933193019684179A
:103030009507C1F7615070403FEF6F3F730771F61E
:103040004230510554F0EFA5F8A981E090E01192CB
:103050001192019684179507D1F7015010400F5F28
:103060001F4F85CFE1E0F0E0D7019B96FC93EE93F4
:103070009A97D50114968D919C911597181619065B
:103080000CF05DC1C501AA24BB24F401A081B1816B
:10309000FC018281938118161906E4F500E010E026
:1030A0007501EE0CFF1CC501880F991F880F991F31
:1030B000880F991FE80EF91E9D0113C080E06A2D4C
:1030C000402F0E94E303D4012D913C910F5F1F4FCD
:1030D000D601ED91FC911197828193810817190710
:1030E000C4F4F701E00FF11F7896EE0FFF1FE20F17
:1030F000F31F80819181009709F38130910531F7A9
:1031000082E06A2D402F0E94E303F4012081318187
:10311000DDCFD9010894A11CB11C84819581A8162A
:10312000B9060CF4B6CFEE24FF24560100E010E0FF
:103130002701440C551C440C551C12962D913C91B2
:103140001397C701820F931F97FD2DC0ED91FC913E
:103150001197FEA7EDA7BF01600F711F77FD23C078
:10316000F501C080D180F60144815581841795070F
:10317000D4F48281938168177907ACF4C201800F7F
:10318000911F0396880F991F8A0F9B1FDC018D9159
:103190009C911197009739F06E2D620F4DA5400F4D
:1031A00081E00E94E3030F5F1F4F0430110521F0FF
:1031B000F401A081B181C1CF0894E11CF11CF4E0BD
:1031C000EF16F10421F0F401A081B181AFCF6501C8
:1031D0008FEF99EF0197F1F700C00000D30114962B
:1031E000ED90FC9015978CCDF301E480F580A280E2
:1031F000B380D7019E968D919C919F97F501608138
:1032000071810E94AF19009709F42ECE20E030E0C2
:1032100032CE0E94791B67E070E00E94C319F7016B
:1032200095838483D3011496ED91FC9115970480C6
:10323000F581E02DEE0FFF1FE295F295F07FFE275E
:10324000E07FFE27E25FFD4FDE011D9680819181C8
:1032500011969C938E938281938113969C938E9367
:1032600012978481958115969C938E9314978681ED
:10327000978117969C938E931697389618962DA93A
:103280003EA9A217B30711F7A1E0EA2EF12C87019E
:1032900001501040000F111F000F111F000F111FD0
:1032A000EDE0F0E0EC0FFD1F0E0F1F1FEBE0AE2E68
:1032B000D8018D919D918D010097B1F082E06E2D26
:1032C0004A2D0E94E303A394BA2DBF3089F70894D6
:1032D000E11CF11CE5E0EE16F104C9F6D3011296EB
:1032E000AD90BC901397C5CE80E06E2D4A2D0E9404
:1032F000E303E9CF44244A94542C91CD80E090E03C
:10330000E6960FB6F894DEBF0FBECDBFCF91DF912A
:103310001F910F91FF90EF90DF90CF90BF90AF90F3
:103320009F908F907F906F905F904F903F902F90E5
:103330000895C4016FEF7FEF0E94531589CDF4010A
:10334000A081B181F0CE991B79E004C0991F961736
:1033500008F0961B881F7A95C9F780950895AA1BD7
:10336000BB1B51E107C0AA1FBB1FA617B70710F070
:10337000A61BB70B881F991F5A95A9F780959095A2
:10338000BC01CD01089597FB092E07260AD077FDD1
:1033900004D0E5DF06D000201AF4709561957F4FC8
:1033A0000895F6F7909581959F4F0895A1E21A2E02
:1033B000AA1BBB1BFD010DC0AA1FBB1FEE1FFF1FD9
:1033C000A217B307E407F50720F0A21BB30BE40B29
:1033D000F50B661F771F881F991F1A9469F7609570
:1033E0007095809590959B01AC01BD01CF0108952A
:1033F000CF93DF938230910510F482E090E0E0916A
:103400003A04F0913B0440E050E020E030E026C078
:103410006081718168177907E0F06817790781F496
:10342000828193812115310531F0D90113969C9346
:103430008E9312972BC090933B0480933A0426C03E
:103440004115510519F06417750718F4AB01E9012E
:10345000DF019F0172816381E72FF62F3097C1F65C
:103460004115510501F1481B590B4430510580F4B9
:1034700012968D919C911397209719F09B838A83C4
:1034800004C090933B0480933A04FD01329646C0F9
:10349000FD01E40FF51F8193919342505040119626
:1034A0005C934E933BC02091380430913904211530
:1034B000310541F42091F0023091F102309339044A
:1034C000209338042091F2023091F3022115310546
:1034D00041F42DB73EB74091EE025091EF02241B0C
:1034E000350BE0913804F0913904E217F307A0F4AA
:1034F0002E1B3F0B2817390778F0AC014E5F5F4F4A
:103500002417350748F04E0F5F1F5093390440933E
:1035100038048193919302C0E0E0F0E0CF01DF91A5
:10352000CF910895CF93DF93009709F491C0FC01E8
:1035300032971382128260913A0470913B046115B4
:10354000710581F420813181280F391F8091380461
:10355000909139048217930799F5F0933904E09319
:10356000380476C0DB0180E090E002C0CD01D901D3
:10357000AE17BF0748F412962D913C911397211571
:103580003105A1F7CD0121C0B383A283EF01499199
:1035900059919E01240F351FA217B30779F42D917D
:1035A0003C911197240F351F2E5F3F4F31832083AD
:1035B00012962D913C91139733832283009729F41F
:1035C000F0933B04E0933A0443C0DC011396FC9370
:1035D000EE9312974D915D91A40FB51FEA17FB076B
:1035E00069F420813181240F351F2E5F3F4FEC019C
:1035F00039832883228133813B832A83E0E0F0E012
:1036000002C0FB01BC01DB0112968D919C911397C6
:103610000097B9F79B012E5F3F4F8D919C911197B9
:10362000820F931F4091380450913904481759076D
:1036300079F4309729F410923B0410923A0402C0B6
:103640001382128222503040309339042093380480
:10365000DF91CF910895AF92BF92CF92DF92EF9218
:10366000FF920F931F93CF93DF93EC0168817981D1
:103670008A819B81611571058105910521F464E2C0
:1036800079ED8BE597E02DE133EF41E050E00E94CA
:103690008F1E79018A0127EA31E440E050E00E9460
:1036A000701E5B016C01C801B7012CEE34EF4FEFC7
:1036B0005FEF0E94701E6A0D7B1D8C1D9D1D97FF84
:1036C00004C06150704080409048688379838A8349
:1036D0009B837F77CB01DF91CF911F910F91FF905B
:1036E000EF90DF90CF90BF90AF9008950E942B1B7A
:1036F000089584EF92E00E942B1B0895A0E0B0E0B3
:103700008093F4029093F502A093F602B093F7022F
:103710000895FB01DC0105900D920020E1F708956A
:103720000F931F93DF93CF93CDB7DEB72E970FB6CE
:10373000F894DEBF0FBECDBF0D891E8986E08C8355
:103740001A8309838FEF9FE79E838D839E01275EF7
:103750003F4FCE0101966F89788DA9010E94C01B51
:10376000EF81F885E00FF11F10822E960FB6F894C6
:10377000DEBF0FBECDBFCF91DF911F910F91089596
:103780002F923F924F925F926F927F928F929F9271
:10379000AF92BF92CF92DF92EF92FF920F931F935F
:1037A000DF93CF93CDB7DEB72C970FB6F894DEBF7B
:1037B0000FBECDBF6C011B018A01FC01178216826E
:1037C000838181FFD1C12E010894411C511CF60157
:1037D0009381F10193FD859193FF81911F018823CE
:1037E00009F4BEC1853239F493FD859193FF81912F
:1037F0001F01853229F490E0B6010E94E61DE7CF53
:10380000EE24FF2420E02032B0F48B3269F08C32B9
:1038100028F4803251F0833271F40BC08D3239F0CC
:10382000803349F421602CC02260246029C02860C4
:1038300027C0206125C027FD2CC0382F30533A30D7
:1038400098F426FF08C08E2D880FE82EEE0CEE0CA3
:10385000E80EE30E15C08F2D880FF82EFF0CFF0C1D
:10386000F80EF30E20620CC08E3221F426FD78C1D2
:10387000206406C08C3611F4206802C0883649F4F2
:10388000F10193FD859193FF81911F01882309F038
:10389000BACF982F9554933018F09052933028F463
:1038A0000C5F1F4FFFE3F9830DC0833631F0833780
:1038B00071F0833509F060C022C0F80180818983EE
:1038C0000E5F1F4F420171E0A72EB12C16C062E0BF
:1038D000662E712C600E711EF8018080918026FF8B
:1038E00003C06E2D70E002C06FEF7FEFC4012C8724
:1038F0000E94DB1D5C0183012C852F7717C052E0ED
:10390000652E712C600E711EF8018080918026FF5B
:1039100003C06E2D70E002C06FEF7FEFC4012C87F3
:103920000E94D01D5C012C852068830123FD20C0EE
:1039300008C080E290E0B6012C870E94E61DFA9450
:103940002C858F2D90E0A816B90698F311C0F401CC
:1039500027FD859127FF81914F0190E0B6012C87CB
:103960000E94E61D2C85F110FA940894A108B10874
:10397000A114B10461F7F1C0843611F0893649F51C
:1039800027FF08C0F80160817181828193810C5FFB
:103990001F4F09C0F80160817181882777FD8095EC
:1039A000982F0E5F1F4F4FE6B42EB22297FF09C02B
:1039B00090958095709561957F4F8F4F9F4FF0E860
:1039C000BF2AA2012AE030E00E94121E782E74184D
:1039D00045C0853731F43FEEB32EB2222AE030E005
:1039E00025C099EFB92EB2228F36C1F0803720F46E
:1039F000883509F0B5C00DC0803721F0883709F04F
:103A0000AFC002C020E1B22AB4FE0BC084E0B82AE5
:103A100008C0B4FE09C0E6E0BE2A06C028E030E0D7
:103A200005C020E130E002C020E132E0B7FE08C06E
:103A3000F80160817181828193810C5F1F4F07C003
:103A4000F8016081718180E090E00E5F1F4FA2015C
:103A50000E94121E782E7418FFE7BF22B6FE0BC01C
:103A60002EEFB2227E1438F4B4FE07C0B2FC05C0BB
:103A70008FEEB82202C0A72C01C0AE2C8B2D90E097
:103A8000B4FE0DC0FE01E70DF11D2081203319F4B5
:103A9000E9EEBE2209C0A394B2FE06C004C0867837
:103AA0009070009709F0A3948B2C9924B3FC14C058
:103AB000B0FE0FC0AF1428F4E72CEF0CEA18AF2CBF
:103AC00008C0E72C06C080E290E0B6010E94E61D27
:103AD000A394AF14C0F304C0AF1410F4FA1801C0DB
:103AE000FF2484FE0FC080E390E0B6010E94E61D33
:103AF00082FE1FC081FE03C088E590E010C088E709
:103B000090E00DC0C40186789070009791F081FC20
:103B100002C080E201C08BE2B7FC8DE290E0B6010A
:103B20000E94E61D06C080E390E0B6010E94E61DFB
:103B3000EA947E14C0F37A94F201E70DF11D8081BE
:103B400090E0B6010E94E61D7720A9F706C080E24A
:103B500090E0B6010E94E61DFA94FF20C1F737CE2F
:103B6000F6012681378102C02FEF3FEFC9012C9665
:103B70000FB6F894DEBF0FBECDBFCF91DF911F917E
:103B80000F91FF90EF90DF90CF90BF90AF909F90FC
:103B90008F907F906F905F904F903F902F900895FF
:103BA000FC010590615070400110D8F78095909508
:103BB0008E0F9F1F0895FC0161507040019001100D
:103BC000D8F7809590958E0F9F1F08950F931F93A0
:103BD000CF93DF938C01EB018B8181FF1BC082FFB0
:103BE0000DC02E813F818C819D812817390764F497
:103BF000E881F9810193F983E88306C0E885F985B6
:103C0000802F0995009731F48E819F8101969F83C3
:103C10008E8302C00FEF1FEFC801DF91CF911F917C
:103C20000F910895FA01AA27283051F1203181F12E
:103C3000E8946F936E7F6E5F7F4F8F4F9F4FAF4FB4
:103C4000B1E03ED0B4E03CD0670F781F891F9A1FC7
:103C5000A11D680F791F8A1F911DA11D6A0F711D7B
:103C6000811D911DA11D20D009F468943F912AE087
:103C7000269F11243019305D3193DEF6CF0108956F
:103C8000462F4770405D4193B3E00FD0C9F7F6CFA0
:103C9000462F4F70405D4A3318F0495D31FD405268
:103CA000419302D0A9F7EACFB4E0A69597958795FE
:103CB00077956795BA95C9F70097610571050895DD
:103CC0009B01AC010A2E0694579547953795279589
:103CD000BA95C9F7620F731F841F951FA01D089521
:103CE000629FD001739FF001829FE00DF11D649FE0
:103CF000E00DF11D929FF00D839FF00D749FF00D6C
:103D0000659FF00D9927729FB00DE11DF91F639F0C
:103D1000B00DE11DF91FBD01CF011124089597FBDE
:103D2000092E05260ED057FD04D040DB0AD0001C1A
:103D300038F450954095309521953F4F4F4F5F4F48
:103D40000895F6F790958095709561957F4F8F4F08
:083D50009F4F0895F894FFCF86
:103D580052756E6E696E672044656D6F2E2E2E202B
:103D6800002020202020202020202020202020206B
:103D78002000477265656E207475726E20202020C1
:103D8800202000526564207475726E202020202047
:103D980020202000524544203A202532642020204B
:103DA800202020202000475245454E203A20253229
:103DB800642020202020007565202020202020203D
:103DC80020202020202020007369746120202020DA
:103DD800202020202020202000686964617269204A
:103DE800202020202020202020006D6967692020C5
:103DF80020202020202020202020007075742020E2
:103E0800202020202020202020202000736B697093
:103E180020202020202020202020202000010050C9
:103E280052455353204120425554544F4E20202090
:103E380020202000413A474F204241434B204D4526
:103E48004E5520202020202000423A52455354410C
:103E58005254205445545249532020202000000039
:103E68000000000000000000010001000000000048
:103E78000100010000000000000000000000000038
:103E88000100000000000000010000000000000028
:103E98000100000000000000010000000000000018
:103EA8000100010000000000010000000000000007
:103EB80001000000000000000000000000000000F9
:103EC80001000100000000000000010000000000E7
:103ED80000000100000000000000000000000000D9
:103EE80000000100000000000100010000000000C7
:103EF80001000000000000000000000000000000B9
:103F080001000000000000000100010000000000A6
:103F18000000010000000000000000000000000098
:103F28000000000000000000000001000000000088
:103F38000100010001000000000000000000200056
:083F48003C0400000100000030
:00000001FF
