:100000000C9490000C94AF000C94AF000C94AF00D3
:100010000C94AF000C9485070C94AF000C94AF00C7
:100020000C94AF000C94AF000C94AF000C94AF0094
:100030000C94AF000C94AF000C94AF000C94B2067B
:100040000C945D030C94AF000C94AF000C94AF00C3
:100050000C94AF000C94AF000C94AF000C94AF0064
:100060000C94AF000C94AF000C94AF000C94AF0054
:100070000C94AF000C94AF000C94AF000C94AF0044
:100080000C94AF000C94AF000C94AF003031203AC8
:100090002044656D6F2020202020202000000000DB
:1000A0003032203A20536F756E642054657374208B
:1000B000000000003033203A204F746865726F20D2
:1000C00020202020000000003034203A20544554E5
:1000D0005249532020202020000000004C657472FB
:1000E0006F3A2053656C65637441707000457869A0
:1000F000743F20204F4B202A4E4F2020200045786F
:1001000069743F202A4F4B20204E4F20202000535F
:100110006F667452657365744D656E7520200000BE
:1001200011241FBECFEFD0E4DEBFCDBF12E0A0E0B0
:10013000B1E0E8EEFEE300E00BBF02C007900D92D5
:10014000A23AB107D9F713E0A2EAB2E001C01D92CA
:10015000AA3EB107E1F70E946A1A0C94721F0C9430
:100160000000CF92DF92EF92FF920F931F93CF93F5
:10017000DF93CDB7DEB768970FB6F894DEBF0FBE3A
:10018000CDBF6CEE71E080E00E947D026DEF71E00A
:1001900081E00E947D02CE010D960E94DD06CE0117
:1001A00001960E94DD068091A3028111B8C000E093
:1001B000C12C10E0D12CEE24E394FF24F3943EC034
:1001C0009F85913009F458C09889913009F475C021
:1001D0008989813009F489C08A89813009F48DC008
:1001E000BE016F5F7F4F81E00E94F70699819130D9
:1001F00009F452C09B81913009F446C09C81913032
:1002000009F463C08D81813009F467C08E8181302B
:1002100009F47CC0402F6C2D8F2D0E94D303412FF9
:100220006D2D8E2D0E94D3038FE891E00197F1F799
:1002300000C000009091A302911171C0BE01635FE4
:100240007F4F80E00E94F7069D85913009F0B8CF7E
:100250008B898111B5CF81E0F81609F472C092E064
:10026000F91609F474C083E0F812AACFFF24F394BE
:100270009F85913009F0A8CF8D898111A5CF0023EA
:1002800009F4AECF0150ACCF89858111B7CF1123CE
:1002900009F4C0CF1150BECF8F818111ABCF81E067
:1002A000E81609F44BC092E0E91609F44DC083E06A
:1002B000E812A0CFEE24E3949DCF8E89811188CFE0
:1002C0000F3008F08DCF0F5F8BCF8A8581119ACFC9
:1002D0001F3008F09FCF1F5F9DCF8B85811196CF78
:1002E000DD2009F497CFDA9495CF8F89811174CFEF
:1002F000CC2009F475CFCA9473CF888D811170CF4B
:100300009EE09C1508F46CCFC3946ACF8C85811154
:1003100081CF9EE09D1508F47DCFD3947BCF689666
:100320000FB6F894DEBF0FBECDBFDF91CF911F9106
:100330000F91FF90EF90DF90CF90089592E0E92E1B
:1003400059CF32E0F32E3CCF83E0E82E53CF23E0A9
:10035000F22E36CF08950C947A140C9460168FE523
:100360009AEE0197F1F700C0000083E488B946983F
:10037000EFE0F0E43197F1F700C0000088B946984B
:10038000EFE8F1E03197F1F700C0000088B9469836
:100390008FE39CE90197F1F700C0000081E488B980
:1003A0004698EFE3FCE93197F1F700C000000895AB
:1003B00087B1807F87B990E698B986B188B18F7987
:1003C00088B998B986B188B18F7988B980E092E010
:1003D00030E625E02A95F1F7000038B926B128B1BA
:1003E0002F7928B938B926B128B12F7928B90197C2
:1003F00081F787B18F6787B9089582E488B94698F5
:1004000088E488B946980C94D80190E498B9469845
:10041000886488B946980C94D80180E488B94698D5
:1004200081E488B946980C94D80180E488B946984C
:1004300086E488B946980C94D801982F92959770C5
:10044000986498B946988F70806488B946980C94DF
:10045000D801982F92959F70906598B946988F70A3
:10046000806588B9469880913C038F5F80933C03F8
:100470000C94D8011F93CF93DF93EC0188818823DC
:1004800051F010E00E9429021F5FFE01E10FF11DF3
:1004900080818111F7CFDF91CF911F910895DC0109
:1004A0002C912223B9F020E02F5FFC01E20FF11D17
:1004B00030813111F9CFDB019C9180E0992341F02B
:1004C00090838F5FDB01A80FB11D9C919111F8CF34
:1004D00010820895FC01EFCF87B18F6787B90E9422
:1004E000AF010E94FD0184E00E9405020E940D02FE
:1004F0000E94150210923C0308951F93CF93DF933F
:10050000EB01811114C010923C030E941D028881EE
:10051000882349F0219610E10E94290289918823BD
:1005200011F01150C9F7DF91CF911F9108958130DB
:1005300019F080913C03E9CF80E480933C03E5CF40
:10054000F89480E587BD82E084BD93E095BD8093FB
:100550006E0078940895F89414BC10926E0078940C
:1005600008952898289A08952998299A089581111C
:1005700002C02A9808952A9A089520E030E008C021
:100580002A9A2898289A2F5F3F4F2031310589F009
:10059000AC01022E02C0569547950A94E2F740FD41
:1005A000EFCF2A982898289A2F5F3F4F20313105A6
:1005B00079F7089520E030E8803110F0C9010895FE
:1005C00002C0369527958A95E2F7C90108956031F2
:1005D00000F54091800350918103E62FF0E0DF01A8
:1005E000AA0FBB1FA40FB51F2D913C9120953095EC
:1005F000DC0111963C932E937096EE0FFF1FE40FD3
:10060000F51F208131812095309513963C932E93D0
:100610001297089520917D03203108F041C030E009
:10062000F901EE0FFF1F205F3F4F220F331F409154
:10063000800350918103E40FF51F808191818095A3
:1006400090959093830380938203FA01E20FF31F46
:100650008081918180959095909385038093840308
:100660000E94BD0280918203909183030E94BD028B
:1006700080917E0390917F030E94BD022998299A60
:1006800080917E0390917F039695879590937F0349
:1006900080937E0380917D038F5F80937D03089517
:1006A00080E090E890937F0380937E0310927D0317
:1006B00020E230E0E0E0F0E0BACF1F920F920FB6F8
:1006C0000F9211240BB60F921BBE2F933F934F93A3
:1006D0005F936F937F938F939F93AF93BF93CF93CA
:1006E000EF93FF93F894CFB70E940A03CFBF78949B
:1006F000FF91EF91CF91BF91AF919F918F917F919A
:100700006F915F914F913F912F910F900BBE0F9082
:100710000FBE0F901F901895CF93C0E20E940A035E
:10072000C150E1F780E090E00E94BD0280E090E0DF
:100730000E94BD0280E090E00E94BD0280E090E057
:100740000E94BD022998299ACF91089584B18760AB
:1007500084B98DE393E0909381038093800380E0DC
:1007600090E890937F0380937E0310927D03EDE3E6
:10077000F3E01192119283E0ED37F807D1F70C9472
:100780008C0380E090E890937F0380937E03109227
:100790007D03E0918003F091810380E21192119238
:1007A0008150E1F70895CF93DF9381112DC040313F
:1007B00040F5603130F5C0918003D0918103E42F82
:1007C000F0E0DF01AA0FBB1FAC0FBD1F80E090E877
:1007D00002C0969587956A95E2F7809590952D9140
:1007E0003C911197282339232D933C937096EE0F5B
:1007F000FF1FEC0FFD1F2081318128233923318316
:100800002083DF91CF910895813071F1823009F416
:1008100047C08330B1F74031A0F7603190F7C09105
:100820008003D0918103E42FF0E0DF01AA0FBB1F0A
:10083000AC0FBD1F80E090E802C0969587956A9541
:10084000E2F72D913C911197282B392B2D933C9356
:100850007096EE0FFF1FEC0FFD1F20813181282BBA
:10086000392B31832083CDCF403158F6603148F6A3
:1008700050E0440F551FA0918003B0918103A40F55
:10088000B51F20E030E802C0369527956A95E2F75B
:100890008D919C911197822B932B8D939C93B1CF2B
:1008A000403108F0AECF603108F0ABCF50E0405F90
:1008B0005F4FDFCFAF92BF92CF92DF92EF92FF9266
:1008C0000F931F93CF93DF93F82E162FD42FA22EC2
:1008D000D22ED61AD7FC4FC0BB24B394E02EED1A0B
:1008E000E7FC45C0CC24C3944D2F612F8F2D0E946F
:1008F000D303ED141CF10D17B1F0DD0CAE2CA19457
:10090000AA0CDC0DC0E001C0D82FCD0DCE1514F01F
:100910001B0DCA0D4D2F612F8F2D0E94D3038D2FDC
:100920008C0D0D13F1CFDF91CF911F910F91FF909F
:10093000EF90DF90CF90BF90AF900895A11699F3FC
:10094000EE0C0D2D0195000F1B0DC0E001C0182FFE
:10095000CE0DCD1514F0DC0DC00F4D2F612F8F2D56
:100960000E94D303812F8B0DA112F1CFDCCFE19434
:10097000CC24CA94B9CFD194BB24BA94AFCF8823E6
:1009800009F43FC02091800330918103A82FBB2739
:10099000A7FDB095F9011816ACF550E18081918161
:1009A0000A2E02C0880F991F0A94E2F7819391934F
:1009B0005150A1F71616ACF5F901462F552747FD02
:1009C0005095BA01660F771F80E090E007C0118252
:1009D0001082019632968031910591F09A01280F8C
:1009E000391F203131059CF7DF01A60FB71F2D916C
:1009F0003C9131832083019632968031910571F7C5
:100A00000895089540E1808191810A2E02C0969553
:100A100087950A94E2F7819391934150A1F71616B6
:100A20005CF2772767FD7095AFE08A2F90E0FC01BC
:100A3000E60FF71FF7FD15C0EE0FFF1FE20FF31FC4
:100A400040815181FC01EE0FFF1FE20FF31F518324
:100A50004083A1508A2F90E0FC01E60FF71FF7FFBB
:100A6000EBCFFC01EE0FFF1FE20FF31F118210828C
:100A7000A150F0CF809180039091810308959093CD
:100A80008103809380030895109297030895CF9374
:100A9000DF931F92CDB7DEB789830E9463078981F8
:100AA000813099F040F08230A9F0833049F00F9006
:100AB000DF91CF9108950F90DF91CF910C94B10009
:100AC0000F90DF91CF910C94AD010F90DF91CF91FA
:100AD0000C94AA010F90DF91CF910C94AB01CF93AE
:100AE000DF93CDB7DEB768970FB6F894DEBF0FBEC1
:100AF000CDBF6CED70E088E993E00E94591C68E975
:100B000073E080E00E947D026CE870E088E993E089
:100B10000E94591C68E973E081E00E947D020E94F6
:100B20006507CE010D960E94DD06CE0101960E945A
:100B3000DD0613E002E08091A302811145C0BE01F1
:100B4000635F7F4F80E00E94F7068D85813009F456
:100B500054C08F85813009F45BC08889813009F4E5
:100B600092C0BE016F5F7F4F81E00E94F7068981CE
:100B7000813009F480C08B81813009F468C08C8198
:100B80008130C9F69A859111D6CF90919703992318
:100B900009F496C0913009F469C0923009F486C016
:100BA000933049F6109297036CE870E088E993E07F
:100BB0000E94591C68E973E081E00E947D028091E7
:100BC000A302882309F4BBCF6CED70E088E993E0C1
:100BD0000E94591C68E973E080E00E947D026CE885
:100BE00070E088E993E00E94591C68E973E081E0B5
:100BF0000E947D021092A302A2CF8B898111A9CFFE
:100C0000809197030E9447058F85813009F0A5CF19
:100C10009D899111A2CF90919703992309F44BC01C
:100C2000913009F43EC0923009F44FC0933009F07E
:100C300098CF0093970364EB70E088E993E00E94FB
:100C4000591C68E973E081E00E947D028ACF998592
:100C5000911195CF90919703992341F1913009F427
:100C6000A1CF923069F1933009F065CF00939703DB
:100C700064EB70E09BCF8F8181117DCF80919703D2
:100C80000E94470578CF9E8991116BCF9091970371
:100C90009923D9F0913069F2923069F0933009F0DC
:100CA00060CF109297036CE870E0C7CF1093970362
:100CB00068EC70E07BCF1093970368EC70E0BDCFD9
:100CC0008093970360EA70E071CF8093970360EAA6
:100CD00070E0B3CF8AB180638AB91092800085E05A
:100CE000809381000895EFE6F0E080818E7F80831D
:100CF0008BB18F7C8BB908958091A9030895CF9310
:100D0000DF93C82FD62F843FC0F440E050E0C8E105
:100D100020E02093AA03CD9FC02D1124C093A903E6
:100D20005093850040938400B09A80916F00816059
:100D300080936F00DF91CF910895282F30E040E03D
:100D400050E064E274EF80E090E00E949F1A2195E9
:100D50008DECC89FC12D1124C695C695C695422F0E
:100D600050E0D7CF1F920F920FB60F9211242F93FE
:100D70008F939F932FB78091AA0390E09093850063
:100D8000809384008BB190E189278BB95C990CC06A
:100D90008091A90381508093A903811105C080919E
:100DA0006F008E7F80936F002FBF9F918F912F9147
:100DB0000F900FBE0F901F901895FC0110821182AA
:100DC000128213821482158216821782108611866F
:100DD00012861386089581B111B88AB183738AB9D6
:100DE00082B18FEF82B98BB18C6C8BB90895FB0106
:100DF0009081968391819783928190879381918747
:100E00009481928795819387811114C0019915C0AF
:100E100081E08083009B14C01182029B15C0128266
:100E2000039B16C01382049B17C01482059B18C035
:100E3000158208958130B9F0089510820099ECCFA1
:100E400081E081830299EBCF81E082830399EACF2D
:100E500081E083830499E9CF81E084830599E8CF19
:100E600081E085830895069B13C0108207991BC0FB
:100E700081E081834B9B14C012824A9B0EC0138277
:100E80004E9B08C014824F99D3CF81E08583EACF6F
:100E90008083ECCF81E08483F6CF81E08383F0CF41
:100EA00081E08283EACF1182E5CF089524982C9ABD
:100EB000E8E6F0E0808182608083ECE6F0E080810B
:100EC00080618083089578940895ECE6F0E0808155
:100ED0008F7E808308956FE071E08BEA93E00E943B
:100EE000591C6BEA73E080E00E947D026EEF70E0B7
:100EF0008BEA93E00E94591C6BEA73E081E00E9448
:100F00007D0281E08093A30208951F920F920FB695
:100F10000F9211240BB60F921BBE2F933F934F934A
:100F20005F936F937F938F939F93AF93BF93CF9371
:100F3000EF93FF93CFB78FE99FE00197F1F700C0E0
:100F400000000E946B077894CFBFFF91EF91CF9183
:100F5000BF91AF919F918F917F916F915F914F91D1
:100F60003F912F910F900BBE0F900FBE0F901F90CF
:100F700018950F930E94A00281E080931403809340
:100F8000070347E067E00E94D30348E068E081E0A0
:100F90000E94D30382E0809313038093080348E008
:100FA00067E00E94D30347E068E082E00E94D30339
:100FB00083E08093E00244E064E00E94D30384E095
:100FC00090E09093C8038093C7039093C2038093EB
:100FD000C10303E02CE043E063E083E00E945A0495
:100FE0000CE02CE04CE063E083E00E945A0423E034
:100FF00043E063E083E00E945A042CE043E06CE0AD
:1010000083E00E945A041092D2031092D1030F91F0
:10101000089520E030E0F901EE0FFF1FE20FF31F0B
:10102000EE0FFF1FEE0FFF1FE455FD4F80E090E035
:101030001192019680319105D9F72F5F3F4F2031F2
:10104000310549F708954091C7035091C803609155
:10105000C1037091C203FA01EE0FFF1FE40FF51FE9
:10106000EE0FFF1FEE0FFF1FE60FF71FE455FD4FBA
:101070008091D103808380E00E94D3034091C70315
:101080006091C1038091D1030E94D3036091C10399
:101090007091C2036B30710514F184E090E090937D
:1010A000C2038093C1034091C7035091C803FA0162
:1010B000EE0FFF1FE40FF51FEE0FFF1FEE0FFF1FD8
:1010C000E455FD4F8481992787FD90959093D20335
:1010D0008093D10383E0848364E00C94D3036F5F37
:1010E0007F4F7093C2036093C1034091C703509137
:1010F000C803FA01EE0FFF1FE40FF51FEE0FFF1FED
:10110000EE0FFF1FE60FF71FE455FD4F8081992773
:1011100087FD90959093D2038093D10383E08083E1
:101120000C94D3034091C7035091C8036091C1034D
:101130007091C203FA01EE0FFF1FE40FF51FEE0FCF
:10114000FF1FEE0FFF1FE60FF71FE455FD4F8091C5
:10115000D103808380E00E94D3034091C703609154
:10116000C1038091D1030E94D3036091C1037091A8
:10117000C2036530710514F58BE090E09093C203D3
:101180008093C1034091C7035091C803FA01EE0F49
:10119000FF1FE40FF51FEE0FFF1FEE0FFF1FE455BB
:1011A000FD4F8385992787FD90959093D203809377
:1011B000D10383E083876BE00C94D3036150710902
:1011C0007093C2036093C1034091C7035091C80359
:1011D000FA01EE0FFF1FE40FF51FEE0FFF1FEE0FDA
:1011E000FF1FE60FF71FE455FD4F8081992787FD0C
:1011F00090959093D2038093D10383E080830C94E5
:10120000D3034091C7035091C8036091C10370910B
:10121000C203FA01EE0FFF1FE40FF51FEE0FFF1FD1
:10122000EE0FFF1FE60FF71FE455FD4F8091D1032E
:10123000808380E00E94D3034091C7036091C10383
:101240008091D1030E94D3034091C7035091C803FA
:1012500045305105D4F48BE090E09093C80380931F
:10126000C7036091C1037091C203FB01E05DFC4FB5
:101270008081992787FD90959093D2038093D10325
:1012800083E080834BE00C94D30341505109509389
:10129000C8034093C7036091C1037091C203FA0170
:1012A000EE0FFF1FE40FF51FEE0FFF1FEE0FFF1FE6
:1012B000E60FF71FE455FD4F8081992787FD909534
:1012C0009093D2038093D10383E080830C94D30363
:1012D0004091C7035091C8036091C1037091C2034C
:1012E000FA01EE0FFF1FE40FF51FEE0FFF1FEE0FC9
:1012F000FF1FE60FF71FE455FD4F8091D103808358
:1013000080E00E94D3034091C7036091C1038091A4
:10131000D1030E94D3034091C7035091C8034B30BF
:101320005105D4F084E090E09093C8038093C70304
:101330006091C1037091C203FB01E455FD4F80A988
:10134000992787FD90959093D2038093D10383E0F2
:1013500080AB44E00C94D3034F5F5F4F5093C803BE
:101360004093C7036091C1037091C203FA01EE0F6D
:10137000FF1FE40FF51FEE0FFF1FEE0FFF1FE60F1D
:10138000F71FE455FD4F8081992787FD9095909335
:10139000D2038093D10383E080830C94D3030F9313
:1013A0008091AA029091AB0201969093AB02809338
:1013B000AA020FE020E040E060E080E00E945A04D2
:1013C00000E02FE040E060E080E00E945A040FE07F
:1013D0002FE040E06FE080E00E945A042FE04FE0F1
:1013E00060E080E00E945A048091AA029091AB02D2
:1013F0008170907897FD36C00FE020E040E060E01B
:101400008F5F0E945A048091AA029091AB02817072
:10141000907897FD36C000E02FE040E060E08F5FFD
:101420000E945A048091AA029091AB028170907838
:1014300097FD22C00FE02FE040E06FE08F5F0E9439
:101440005A048091AA029091AB028170907897FD26
:101450000EC00FE02FE04FE060E08F5F0E945A0463
:101460000F91089501978E6F9F6F0196C5CF0197D9
:101470008E6F9F6F0196EDCF01978E6F9F6F0196D4
:10148000D9CF01978E6F9F6F0196C5CFCF93DF9312
:10149000CDB7DEB768970FB6F894DEBF0FBECDBFED
:1014A0001092CC031092CB0320E030E000E010E07B
:1014B000E12CF12C1092C4031092C30380E090E061
:1014C00015C080E00E947D020F5F1F4F8091C30313
:1014D0009091C40301969093C4038093C303209119
:1014E000CB033091CC0388309105DCF42C5F3F4F67
:1014F000F901EE0FFF1FE20FF31FEE0FFF1FEE0FBC
:10150000FF1FE455FD4FE80FF91F848163ED73E081
:101510008230B9F680E00E947D028FEFE81AF80A67
:10152000D5CF2F5F3F4F3093CC032093CB03283090
:1015300031050CF4BFCFFF92EF928EE092E09F93C3
:101540008F9343EDE42E43E0F42EFF92EF920E943E
:10155000601CB70180E00E947D021F930F9382E21E
:1015600092E09F938F93FF92EF920E94601CB701CD
:1015700081E00E947D02CE010D960E94DD06CE0123
:1015800001960E94DD060FB6F894DEBF0FBECDBFF8
:10159000BE01635F7F4F81E00E94F7068F85813037
:1015A00009F44EC08889813009F451C0898981309D
:1015B00009F453C08A89813009F456C08D85813081
:1015C00009F459C08E85813009F45CC0BE016F5F9B
:1015D0007F4F80E00E94F7068B818130A9F08C81DB
:1015E0008130C1F08D818130D9F08E818130F1F070
:1015F0008981813009F18A81813051F68885811194
:10160000C7CF0E947A14C4CF89858823D1F38C81F7
:10161000813041F78A858823A1F38D81813029F7B4
:101620008B85882371F38E81813011F78C85882317
:1016300041F389818130F9F68F818111DCCFE1CFCF
:101640008D89882319F28889813009F0AFCF8E897E
:101650008111ACCF0E947A14B9CF8F898823D1F33E
:101660008A89813009F0AACF888D882399F38D85E6
:10167000813009F0A7CF8B89882361F38E85813073
:1016800009F0A4CF8C898111A1CF0E947A149ECF3A
:101690000F93CF93DF932091C1033091C203309316
:1016A000C6032093C5033093D0032093CF038091CA
:1016B000C7039091C8039093CE038093CD0390937A
:1016C000E5038093E4034091D1035091D203452B6D
:1016D00009F0D1C48C30910514F00C944414DC0151
:1016E0001196FD01EE0FFF1FEA0FFB1FEE0FFF1F0C
:1016F000EE0FFF1FE20FF31FE455FD4F60816623DD
:1017000009F4A9C04091000150910101772767FDBC
:1017100070956417750709F49EC08B30910511F41C
:101720000C944414C1E0D0E032C0BC01CD019093D0
:10173000E5038093E4038C3091050CF088C06E5F64
:101740007F4FFB01EE0FFF1FE60FF71FEE0FFF1F8E
:10175000EE0FFF1F4091CF035091D003E40FF51F10
:10176000E455FD4F6081662309F471C0409100018A
:1017700050910101772767FD70956417750709F48B
:1017800066C08B30910509F462C0DC011196BC0182
:101790006E5F7F4FFB01EE0FFF1FE60FF71FEE0F8F
:1017A000FF1FEE0FFF1FE20FF31FE455FD4F608197
:1017B000772767FD70954617570709F0B6CF409118
:1017C000CD035091CE03A417B5070CF4DEC7FA0180
:1017D000EE0FFF1FE40FF51FEE0FFF1FEE0FFF1FB1
:1017E000E20FF31FE455FD4F80910001808360916B
:1017F000C10380E00E94D3034091CD036091C103F7
:10180000809100010E94D3034091CD035091CE03FB
:101810004F5F5F4F5093CE034093CD036091E4033D
:101820007091E503CB0101962091C1033091C20371
:101830008417950764F6D093C003C093BF039093B9
:10184000E5038093E4038C3091050CF478CF80910C
:10185000C7039091C8033093D0032093CF033093F4
:10186000C6032093C5039093E5038093E40390930C
:10187000CE038093CD03853091050CF4BBC0DC0111
:101880001197FD01EE0FFF1FEA0FFB1FEE0FFF1F69
:10189000EE0FFF1FE20FF31FE455FD4F608166233B
:1018A00009F4A8C04091000150910101772767FD1C
:1018B00070956417750709F49DC08530910509F48A
:1018C00099C0C1E0D0E032C0BC01CD019093E503E6
:1018D0008093E403853091050CF488C0625071094F
:1018E000FB01EE0FFF1FE60FF71FEE0FFF1FEE0FBE
:1018F000FF1F4091CF035091D003E40FF51FE45533
:10190000FD4F6081662309F471C040910001509140
:101910000101772767FD70956417750709F466C0A4
:101920008530910509F462C0DC011197BC01625059
:101930007109FB01EE0FFF1FE60FF71FEE0FFF1FF0
:10194000EE0FFF1FE20FF31FE455FD4F6081772775
:1019500067FD70954617570709F0B6CF4091CD0344
:101960005091CE034A175B070CF416C7FA01EE0F2D
:10197000FF1FE40FF51FEE0FFF1FEE0FFF1FE20F1B
:10198000F31FE455FD4F8091000180836091C103F6
:1019900080E00E94D3034091CD036091C103809108
:1019A00000010E94D3034091CD035091CE034150DA
:1019B00051095093CE034093CD036091E40370919D
:1019C000E503CB0101972091C1033091C203481771
:1019D000590764F6D093C003C093BF039093E50307
:1019E0008093E403853091050CF078CF8091C70394
:1019F0009091C8033093D0032093CF033093C60354
:101A00002093C5039093E5038093E4039093CE0362
:101A10008093CD03AC01440F551F2C3031050CF0E1
:101A200022C7FA01E80FF91FEE0FFF1FEE0FFF1F8D
:101A3000E455FD4FE20FF31FE181EE2309F4A7C047
:101A40006091000170910101FF27E7FDF095E61715
:101A5000F70709F49CC02B30310509F404C7C1E035
:101A6000D0E032C0A9012F5F3F4F3093D0032093C5
:101A7000CF032C3031050CF086C06091E4037091E7
:101A8000E503FB01EE0FFF1FE60FF71FEE0FFF1F31
:101A9000EE0FFF1FE455FD4FE40FF51F4281442375
:101AA00009F471C06091000170910101552747FD53
:101AB00050954617570709F466C02B30310509F4D5
:101AC00062C0AC01440F551FFA01E80FF91FEE0F79
:101AD000FF1FEE0FFF1FE455FD4FE20FF31FE281E2
:101AE000FF27E7FDF0956E177F0709F0BBCFF901DF
:101AF00031966091C5037091C603E617F70724F489
:101B000052C6AC01440F551FFA01E80FF91FEE0F42
:101B1000FF1FEE0FFF1FE60FF71FE455FD4F20914B
:101B2000000120834091C70380E00E94D3034091CD
:101B3000C7036091C503809100010E94D3036091A7
:101B4000C5037091C6036F5F7F4F7093C6036093A8
:101B5000C5034091CF035091D0039A012F5F3F4FAF
:101B60008091C7039091C8032617370754F6D09386
:101B7000C003C093BF033093D0032093CF032C3016
:101B800031050CF47ACF2091C1033091C203309318
:101B9000D0032093CF033093C6032093C5039093C3
:101BA000E5038093E4039093CE038093CD03121654
:101BB00013060CF047C6AC01440F551FFA01E80F9D
:101BC000F91FEE0FFF1FEE0FFF1FE20FF31FE5558A
:101BD000FD4FE081EE2309F4A7C0609100017091F0
:101BE0000101FF27E7FDF095E617F70709F49CC010
:101BF000263031050CF426C6C1E0D0E032C0A90180
:101C0000215031093093D0032093CF0312161306CD
:101C10000CF086C06091E4037091E503FB01EE0FC8
:101C2000FF1FE60FF71FEE0FFF1FEE0FFF1FE40F62
:101C3000F51FE655FD4F4081442309F471C06091C2
:101C4000000170910101552747FD50954617570730
:101C500009F466C0263031050CF462C0AC01440FB3
:101C6000551FFA01E80FF91FEE0FFF1FEE0FFF1FC0
:101C7000E20FF31FE655FD4FE081FF27E7FDF095EA
:101C80006E177F0709F0BBCFF90131976091C5034B
:101C90007091C6036E177F0724F48CC5AC01440F06
:101CA000551FFA01E80FF91FEE0FFF1FEE0FFF1F80
:101CB000E60FF71FE455FD4F20910001208340916E
:101CC000CD0380E00E94D3034091CD036091C50312
:101CD000809100010E94D3036091C5037091C603F7
:101CE000615071097093C6036093C5034091CF039F
:101CF0005091D0039A01215031098091C7039091EE
:101D0000C8036217730754F6D093C003C093BF0390
:101D10003093D0032093CF03121613060CF47ACF1E
:101D20002091C1033091C2033093D0032093CF039D
:101D30003093C6032093C5039093E5038093E40397
:101D40009093CE038093CD032C3031050CF0BFC5AA
:101D50008C3091050CF09BC1DC011196FD01EE0F5A
:101D6000FF1FEA0FFB1FEE0FFF1FEE0FFF1FE455D3
:101D7000FD4FE20FF31F6181662309F488C1409192
:101D8000000150910101772767FD70956417750771
:101D900009F47DC18B30910509F479C12B303105EF
:101DA00009F495C5C1E0D0E03BC0FC01CD01309302
:101DB000D0032093CF039093E5038093E4032C306A
:101DC00031050CF05CC18C3091050CF058C1AF01AD
:101DD0004E5F5F4FFA01EE0FFF1FE40FF51FEE0F8E
:101DE000FF1FEE0FFF1FE455FD4FE20FF31F618150
:101DF000662309F444C14091000150910101772705
:101E000067FD70956417750709F439C18B3091052A
:101E100009F435C12B30310509F431C1DC011196CB
:101E2000BC016E5F7F4FFB01EE0FFF1FE60FF71F38
:101E3000EE0FFF1FEE0FFF1FE455FD4FE20FF31FE4
:101E40006281772767FD70952F5F3F4F46175707D1
:101E500009F0ABCF6091C5037091C6032617370711
:101E60000CF4BDC44091CD035091CE03A417B50727
:101E70002CF4B5C4841795070CF43FC0FA01EE0F9B
:101E8000FF1FE40FF51FEE0FFF1FEE0FFF1FE60F02
:101E9000F71FE455FD4F80910001808380E00E9490
:101EA000D3034091CD036091C503809100010E944E
:101EB000D3036091C5037091C6036F5F7F4F70932A
:101EC000C6036093C5034091CD035091CE034F5F8D
:101ED0005F4F5093CE034093CD032091CF033091B9
:101EE000D0032F5F3F4FE091E403F091E503CF0172
:101EF0000196261737070CF0BDCFD093C003C093CF
:101F0000BF0355CF4F5F5F4F4C30510509F013C4ED
:101F100088E090E09093C4038093C3033093A702BA
:101F20002093A6027093A5026093A4029093CC0321
:101F30008093CB038091A8029091A9028170907840
:101F400097FF04C001978E6F9F6F0196019709F468
:101F50000EC48091A6029091A70201969093A702C9
:101F60008093A6029F938F9383E392E09F938F9336
:101F7000C3EDD3E0DF93CF930E94601CBE0180E0ED
:101F80000E947D028091A5028F938091A4028F937D
:101F90008CE492E09F938F93DF93CF930E94601C19
:101FA000BE0181E00E947D021092A5021092A4025F
:101FB0001092A7021092A6020FE020E040E060E03D
:101FC00080E00E945A0400E02FE040E060E080E002
:101FD0000E945A040FE02FE040E06FE080E00E9492
:101FE0005A042FE04FE060E080E00E945A048091A4
:101FF000AA029091AB028170907897FD1EC40FE009
:1020000020E040E060E08F5F0E945A048091AA02C5
:102010009091AB028170907897FD0AC400E02FE0A8
:1020200040E060E08F5F0E945A048091AA02909184
:10203000AB028170907897FDF6C30FE02FE040E08F
:102040006FE08F5F0E945A048091AA029091AB02C8
:102050008170907897FDE2C30FE02FE04FE060E0E1
:102060008F5F0E945A048DB79EB70C960FB6F894F6
:102070009EBF0FBE8DBFDF91CF910F91089520912C
:10208000C1033091C2038091C7039091C80330937C
:10209000D0032093CF033093C6032093C5039093BE
:1020A000E5038093E4039093CE038093CD0312164F
:1020B00013060CF0FBC3181619060CF09EC3DC01C6
:1020C0001197FD01EE0FFF1FEA0FFB1FEE0FFF1F21
:1020D000EE0FFF1FE20FF31FE555FD4F60816623F2
:1020E00009F48BC34091000150910101772767FDEE
:1020F00070956417750709F480C3863091050CF458
:102100007CC3263031050CF478C3C1E0D0E03BC07D
:10211000FC01CD013093D0032093CF039093E503CE
:102120008093E403121613060CF09FC018161906CC
:102130000CF09BC0AF0142505109FA01EE0FFF1F96
:10214000E40FF51FEE0FFF1FEE0FFF1FE20FF31F4F
:10215000E555FD4F6081662309F487C04091000179
:1021600050910101772767FD70956417750709F491
:102170007CC0863091050CF478C0263031050CF413
:1021800074C0DC011197BC0162507109FB01EE0FB4
:10219000FF1FE60FF71FEE0FFF1FEE0FFF1FE20FEF
:1021A000F31FE655FD4F6081772767FD709521503D
:1021B00031094617570709F0ABCF6091C5037091FD
:1021C000C603621773070CF411C34091CD035091FD
:1021D000CE034A175B072CF409C3481759070CF4C0
:1021E0003FC0FA01EE0FFF1FE40FF51FEE0FFF1FB8
:1021F000EE0FFF1FE60FF71FE455FD4F8091000122
:10220000808380E00E94D3034091CD036091C50399
:10221000809100010E94D3036091C5037091C603B1
:10222000615071097093C6036093C5034091CD035B
:102230005091CE03415051095093CE034093CD03AA
:102240002091CF033091D00321503109E091E40374
:10225000F091E503CF010197621773070CF0BDCF32
:10226000D093C003C093BF0355CF2091C1033091D9
:10227000C2038091C7039091C8033093D003209389
:10228000CF033093C6032093C5039093E503809357
:10229000E4039093CE038093CD03121613060CF043
:1022A00005C38C3091050CF0DEC0DC011196FD01F8
:1022B000EE0FFF1FEA0FFB1FEE0FFF1FEE0FFF1FBA
:1022C000E20FF31FE555FD4F6081662309F4CBC093
:1022D0004091000150910101772767FD70956417C7
:1022E000750709F4C0C08B30910509F4BCC02630D5
:1022F00031050CF4DBC2C1E0D0E03BC0FC01CD01F4
:102300003093D0032093CF039093E5038093E403AD
:10231000121613060CF09FC08C3091050CF09BC078
:10232000AF014E5F5F4FFA01EE0FFF1FE40FF51F85
:10233000EE0FFF1FEE0FFF1FE20FF31FE555FD4FDE
:102340006081662309F487C040910001509101012A
:10235000772767FD70956417750709F47CC08B308B
:10236000910509F478C0263031050CF474C0DC0105
:102370001196BC016E5F7F4FFB01EE0FFF1FE60F52
:10238000F71FEE0FFF1FEE0FFF1FE20FF31FE655C3
:10239000FD4F6081772767FD709521503109461701
:1023A000570709F0ABCF6091C5037091C603621760
:1023B00073070CF406C24091CD035091CE03A417CD
:1023C000B5072CF4FEC1841795070CF43FC0FA0141
:1023D000EE0FFF1FE40FF51FEE0FFF1FEE0FFF1FA5
:1023E000E60FF71FE455FD4F80910001808380E0E8
:1023F0000E94D3034091CD036091C50380910001F9
:102400000E94D3036091C5037091C60361507109A6
:102410007093C6036093C5034091CD035091CE03E2
:102420004F5F5F4F5093CE034093CD032091CF0376
:102430003091D00321503109E091E403F091E5039C
:10244000CF010196621773070CF0BDCFD093C00384
:10245000C093BF0355CF2091C1033091C203809137
:10246000C7039091C8033093D0032093CF033093D8
:10247000C6032093C5039093E5038093E4039093F0
:10248000CE038093CD032C3031050CF0DAC0181642
:1024900019060CF0D6C0DC011197FD01EE0FFF1FED
:1024A000EA0FFB1FEE0FFF1FEE0FFF1FE455FD4F5E
:1024B000E20FF31F6181662309F4C3C0409100015C
:1024C00050910101772767FD70956417750709F42E
:1024D000B8C0863091050CF4B4C02B30310509F436
:1024E000B0C0C1E0D0E03BC0FC01CD013093D003CF
:1024F0002093CF039093E5038093E4032C303105C0
:102500000CF09FC0181619060CF09BC0AF0142508A
:102510005109FA01EE0FFF1FE40FF51FEE0FFF1F29
:10252000EE0FFF1FE455FD4FE20FF31F618166239D
:1025300009F487C04091000150910101772767FDA0
:1025400070956417750709F47CC0863091050CF40A
:1025500078C02B30310509F474C0DC011197BC013F
:1025600062507109FB01EE0FFF1FE60FF71FEE0F20
:10257000FF1FEE0FFF1FE455FD4FE20FF31F6281B7
:10258000772767FD70952F5F3F4F4617570709F074
:10259000ABCF6091C5037091C603261737070CF4C3
:1025A00017C14091CD035091CE034A175B072CF41D
:1025B0000FC1481759070CF43FC0FA01EE0FFF1F77
:1025C000E40FF51FEE0FFF1FEE0FFF1FE60FF71FC3
:1025D000E455FD4F80910001808380E00E94D30389
:1025E0004091CD036091C503809100010E94D30307
:1025F0006091C5037091C6036F5F7F4F7093C603F0
:102600006093C5034091CD035091CE0341505109D1
:102610005093CE034093CD032091CF033091D0034C
:102620002F5F3F4FE091E403F091E503CF01019765
:10263000261737070CF0BDCFD093C003C093BF035C
:1026400055CF8091BF039091C003019709F013CD3E
:102650008091AA029091AB0201969093AB02809375
:10266000AA028091A8029091A90201969093A902D2
:102670008093A802CC970CF03BC14091C7035091C6
:10268000C8036091C1037091C203FA01EE0FFF1FEE
:10269000E40FF51FEE0FFF1FEE0FFF1FE60FF71FF2
:1026A000E455FD4F80910001808380E00E94D303B8
:1026B0004091C7036091C103809100010E94D30340
:1026C0004091C7035091C8036091C1037091C20348
:1026D000FA01EE0FFF1FE40FF51FEE0FFF1FEE0FC5
:1026E000FF1FE60FF71FE455FD4F8081992787FDF7
:1026F00090959093D2038093D10383E0808380E010
:102700000E94D3034091C7036091C10380910001EF
:102710000E94D3034091C7036091C10383E00E94EC
:10272000D3032091A6023091A7026091A402709178
:10273000A50244E050E0FA01EE0FFF1FE40FF51F81
:10274000EE0FFF1FEE0FFF1FE055FD4F88E090E0FA
:1027500005C0A13049F0019709F4D4CBA191A23072
:10276000C1F72F5F3F4FF7CF6F5F7F4FF4CF80915F
:10277000A4029091A50201969093A5028093A402D1
:102780008091A6029091A702EDCBBC01CD01D09320
:10279000C003C093BF0353C8BC01CD01D093C00395
:1027A000C093BF031BC9A9019F01D093C003C0936D
:1027B000BF03E1C9A9019F01D093C003C093BF0328
:1027C000A7CAFC01CD01D093C003C093BF0398CD2D
:1027D000FC01CD01D093C003C093BF0387CEFC01A1
:1027E000CD01D093C003C093BF03E1CAFC01CD016A
:1027F000D093C003C093BF038DCC3093D0032093FC
:10280000CF033093C6032093C5039093E5038093D1
:10281000E4039093CE038093CD0343CD01978E6F55
:102820009F6F019619CC01978E6F9F6F019605CC13
:1028300001978E6F9F6F0196F1CB01978E6F9F6FFF
:102840000196DDCB3093D0032093CF033093C603A2
:102850002093C5039093E5038093E4039093CE0304
:102860008093CD0375CA3093D0032093CF03309368
:10287000C6032093C5039093E5038093E4039093EC
:10288000CE038093CD039AC93093D0032093CF0316
:102890003093C6032093C5039093E5038093E4032C
:1028A0009093CE038093CD030C943F0C3093D003D0
:1028B0002093CF033093C6032093C5039093E50381
:1028C0008093E4039093CE038093CD03E0CD3093C7
:1028D000D0032093CF033093C6032093C503909376
:1028E000E5038093E4039093CE038093CD03E3CB81
:1028F0000E94460ACF93DF93CDB7DEB768970FB635
:10290000F894DEBF0FBECDBFCE010D960E94DD064E
:10291000CE0101960E94DD060E94B90700E010E09A
:102920003FC08889813009F47BC08989813009F4EE
:102930007DC08A89813009F485C08D85813009F494
:1029400093C08E85813009F49BC0BE016F5F7F4FBD
:1029500080E00E94F7068B81813009F449C08C81A8
:10296000813009F457C08D81813009F465C08E81B2
:10297000813009F46DC08981813009F46FC08A818A
:10298000813009F477C08091AA029091AB028170E6
:10299000907897FD3AC001969093010180930001D1
:1029A0001092CA031092C9031092C0031092BF0381
:1029B00085E08A95F1F700000F5F1F4F003A8FE026
:1029C000180709F46DC0003787E1180709F45EC0E5
:1029D000BE01635F7F4F81E00E94F7068F858130E3
:1029E00009F09FCF8D8981119CCF0E940109ADCF45
:1029F00089858111B4CF0E9401098091AA0290912A
:102A0000AB028170907897FFC6CF01978E6F9F6F52
:102A10000196C1CF8A858111A6CF0E946809B3CFE4
:102A20008E89811182CF0E9468098FCF8F89811191
:102A300080CF0E94920889CF8B85811198CF0E9408
:102A40009208A1CF888D811178CF0E9423087DCF75
:102A50008C85811190CF0E94230895CF8F818111A1
:102A60008ECF0E94480B8FCF8B8981116ACF0E9435
:102A7000480B6BCF8885811186CF0E94CF0983CF09
:102A80008C89811162CF0E94CF095FCF4091C7032B
:102A90006091C10383E00E94D30300E010E098CF6F
:102AA0004091C7036091C10380E00E94D30340912D
:102AB000C7036091C1038091D1030E94D30388CFE3
:102AC000AF92BF92CF92DF92EF92FF920F931F933C
:102AD000CF93DF93DB01CD90DC90E6014A815B81EF
:102AE00000E010E060E070E0F801EE0FFF1FEE0F75
:102AF000FF1FEE0FFF1F3696EC0DFD1D20E030E0AE
:102B00007A01EE0CFF1CDA01AA0FBB1FAA0FBB1F34
:102B1000AA0FBB1FEA0EFB1E57FD40C0DC01AD90A3
:102B2000BC90E501AC81BD814A175B07BCF5E601AD
:102B3000A881B981A20FB31FB7FD30C0E501AA80FB
:102B4000BB80AA15BB0554F5AE0DBF1D5896AA0F44
:102B5000BB1FAC0DBD1D0D90BC91A02DAB2BF1F496
:102B6000A0E0B0E06A2B7B2B2F5F3F4F32962430E2
:102B7000310591F60F5F1F4F4F5F5F4F0430110516
:102B800009F0B2CFCB01DF91CF911F910F91FF9050
:102B9000EF90DF90CF90BF90AF900895A1E0B0E0AC
:102BA000C081D181CD2BF1F6DBCFAF92BF92CF9216
:102BB000DF92EF92FF920F931F93CF93DF93CDB7E6
:102BC000DEB7A0970FB6F894DEBF0FBECDBFDC0115
:102BD000ED90FC9040E050E033E0C32ED12CC601D4
:102BE000841B950B0396880F991F8E0D9F1D5A010C
:102BF000AA0CBB1CAA0CBB1CAA0CBB1CE1E0F0E09D
:102C0000EC0FFD1FAE0EBF1EFA013F96EE0FFF1F29
:102C1000EE0DFF1D20E030E077FD4BC06115710522
:102C200029F000811181D5010D931C932F5F3F4F37
:102C30000896B2E0AB0EB11C38972430310561F72D
:102C40004F5F5F4F4430510551F6FE013196D70179
:102C50009E012F5D3F4F8081918117969C938E93AB
:102C600016978281938119969C938E9318978481ED
:102C700095811B969C938E931A97868197811D96BA
:102C80009C938E931C9738961896E217F30719F7C2
:102C9000A0960FB6F894DEBF0FBECDBFDF91CF91E7
:102CA0001F910F91FF90EF90DF90CF90BF90AF906A
:102CB0000895DC010D911C91D5010D931C93B6CFA5
:102CC0002F923F924F925F926F927F928F929F923C
:102CD000AF92BF92CF92DF92EF92FF920F931F932A
:102CE000CF93DF93CDB7DEB7EC970FB6F894DEBF86
:102CF0000FBECDBF86E090E00E94C11A2C0188E093
:102D000090E00E94C11A8C01D2018D939C9386E0C1
:102D100090E00E94C11AF2018283938380E791E0E0
:102D20000E94C11AD20114968C93149715969C9305
:102D300050E1E52EF12CF801F182E082F382E2828B
:102D400082E090E095838483F782E6820E94A0026D
:102D500086B590E00E944E1CD2011296ED91FC9136
:102D600013978CE390E091838083F582E4828AE07C
:102D700090E09383828314960D911C9115970E9485
:102D80004A1C67E070E00E948B1AF80195838483E7
:102D9000F201A481B58181E090E09B969C938E9393
:102DA0009A979D961C921E929C979F961C921E929B
:102DB0009E9797961C921E92969799961C921E9299
:102DC0009897CD018C5B9F4F20E030E044E1429F1B
:102DD000F001439FF00D1124F096EA0FFB1F1192B2
:102DE0001192E817F907D9F72F5F3F4FCF014496AB
:102DF0002031310561F721E030E080E090E0A20170
:102E00004C5F5F4F58AB4FA742E0642E712C640CAF
:102E1000751CFE01B196FEA7EDA701969F969C93A7
:102E20008E939E97232B09F03BC1EDA5FEA52CE0C8
:102E300011922A95E9F7CE0181960E94DD06BE0126
:102E40006F5D7F4F81E00E94F7068DA18111EBC17C
:102E500000E010E08EA1882311F001E010E0FCA05A
:102E600089A1811103C08AA1882371F061E070E01B
:102E70008FA598A90E94D5156FA578A9C3010E94B6
:102E80006015892B09F0FFC2FF2009F4CFC1D201E0
:102E90001496CD90DC9015971296ED90FC901397B8
:102EA000D6019F961C921E929E9788248394912C03
:102EB000F601A080B180C501800F911F91838083AE
:102EC0006FA578A9C3010E946015892B29F0D6014E
:102ED000AD92BC9200E010E08928B1F0F601A2802A
:102EE000B380C5010196938382836FA578A9C3013E
:102EF0000E946015892B41F0D6011396BC92AE92C8
:102F00001297012B09F4C2C1F7018481958118162B
:102F100019060CF04BC0812C912CF7018281938112
:102F200018161906D4F500E010E07401EE0CFF1C31
:102F3000C401880F991F880F991F880F991FE80EE9
:102F4000F91E14C0402F682D80E00E94D303D201E7
:102F50001496CD90DC9015970F5F1F4FD301ED9124
:102F6000FC918281938108171907BCF4F701E00FE7
:102F7000F11F7896EE0FFF1FEC0DFD1D80819181F2
:102F8000009701F3019741F7402F682D82E00E94DE
:102F9000D303F201C480D580DFCFBFEF8B1A9B0A29
:102FA00084819581881699060CF4B8CFE12CF12C18
:102FB000F60100E010E05701AA0CBB1CAA0CBB1CD8
:102FC00062817381CB018E0D9F1D97FD26C04081CC
:102FD00051819A01200F311F37FD1FC0D3018D9001
:102FE0009C90D4011496CD90DC9015978C159D057E
:102FF000A4F412968D919C911397281739076CF4BD
:10300000D501A00FB11F1396AA0FBB1FAE0FBF1F94
:103010008D919C91892B09F0FCC00F5F1F4F0430EC
:10302000110589F0D2011496ED91FC9115976281FA
:103030007381CB018E0D9F1D97FFC9CF0F5F1F4F6F
:103040000430110579F7BFEFEB1AFB0AE4E0EE1646
:10305000F10431F0D2011496ED91FC911597A9CFAE
:10306000EFEFF9EF3197F1F700C00000F201A48112
:10307000B5819C968D919C919D97892B09F0EBC011
:103080009E968D919C919F979A962D913C919B979E
:1030900001969F969C938E939E97232B09F4C5CE01
:1030A000D2011496CD90DC901597F60117A616A6BE
:1030B00013A612A623E030E031832083138212820C
:1030C000A480B580E12CF12CAA0CBB1CAA0CBB1C63
:1030D000D501AE0DBF1DAA0FBB1FAA0FBB1FAA0FA4
:1030E000BB1FA45FBE4F80E090E0A701440F551FB7
:1030F000440F551F440F551F4A5F5F4F4C0D5D1D18
:103100002D913D91FC01EE0FFF1FE40FF51F318360
:10311000208301968430910599F73FEFE31AF30A73
:1031200044E0E416F104A1F66FA578A9C3010E945A
:103130006015892B09F0AEC10E944A1C67E070E05F
:103140000E948B1AF60195838483D2011496ED9127
:10315000FC911597A481B581AA0FBB1FA295B295CA
:10316000B07FBA27A07FBA27A45FBE4FFE01319679
:103170008D919C9111979183808312968D919C9152
:1031800013979383828314968D919C9115979583C1
:10319000848316968D919C911797978386831896B2
:1031A00038962DA53EA5E217F30711F7CC24C3945A
:1031B000E12CF12C8701000F111F000F111F000FD0
:1031C000111F21E030E02C0F3D1F020F131F5BE0A9
:1031D000D52ED8018D919D918D014D2D6C2D892B72
:1031E000F1F082E00E94D303D394BFE0DB12F1CF71
:1031F000EFEFEE1AFE0AC394F5E0CF12DBCFD20157
:103200001496CD90DC9015971296ED90FC90139744
:103210007BCE400F6E0D81E00E94D303FECE80E096
:103220000E94D303E1CF0FEF1FEF14CEF201C48051
:10323000D580E280F380D6019E968D919C919F97D8
:10324000F701608171810E94771A892B09F428CED9
:10325000812C912C2DCE80E090E0EC960FB6F89466
:10326000DEBF0FBECDBFDF91CF911F910F91FF90B9
:10327000EF90DF90CF90BF90AF909F908F907F9016
:103280006F905F904F903F902F900895F60160816E
:10329000718180E090E0DC01AA0FBB1FAA0FBB1F69
:1032A000AA0FBB1F1696AC0DBD1D9C012A0D3B1D20
:1032B000F901EE0FFF1F220F331F220F331F220FC2
:1032C000331FE20FF31FE60FF71F7896EE0FFF1F75
:1032D000EC0DFD1D40E050E00D911D9120813181EC
:1032E000202B312B219331934F5F5F4F4430510599
:1032F00099F701968430910571F6D70114968D9156
:103300009C911597181619060CF0B5C01296AD9041
:10331000BC9013979C0121503109812C912CB6014E
:10332000605D7F4F1501B1E02B1A3108F501EA50BD
:10333000F048FAABE9ABAC01425051095CAB4BAB86
:103340007EAA6DAA37017901A70148195909A4E19C
:10335000A49FF001A59FF00D1124D601AE0FBF1F51
:10336000D0962D913C91D197B2E0AB16B104DCF030
:10337000F296EC0DFD1DDA01AA0FBB1F440F551F7D
:10338000440F551F440F551FA40FB51FAA0DBB1D99
:10339000AA0FBB1FA60FB71F4191519124233523BC
:1033A000EA17FB07C9F7232B09F45BC08E149F04AF
:1033B0000CF047C09C0128193909A901440F551F79
:1033C000220F331F220F331F220F331F420F531FB1
:1033D00029A93AA9420F531F440F551F460F571FE3
:1033E0000BA91CA9081919099CAF8BAF1A141B044F
:1033F0000CF534E1309FD001319FB00D1124D096EF
:10340000AC0DBD1DC801019624E1289FF001299F44
:10341000F00D1124F8AFEFABF096EC0DFD1D8BAD68
:103420009CAD2D913D9121933193E417F507C9F798
:103430009CAF8BAF4451510901501109B8F68BADC7
:103440009CAD1214130454F4FB0120E030E01192FF
:1034500011922F5F3F4F22153305C9F731E0831AD0
:1034600091084FEF841A940A881699060CF46CCFD1
:1034700073016DA87EA881E090E0D6019B969C9395
:103480008E939A9741CD6FEF7FEF8FA598A90E94F9
:10349000D515FACC8CE0ADA5BEA51D928A95E9F7AD
:1034A000CE0181960E94DD0663E672E081E00E9413
:1034B0007D0268E772E080E00E947D026DE872E0C4
:1034C00081E00E947D02BE016F5D7F4F81E00E941E
:1034D000F706F9CF0E946C020E94A6030E944405E1
:1034E0000E9456070E94EB060E946F05FDCFAA1BA3
:1034F000BB1B51E107C0AA1FBB1FA617B70710F0DF
:10350000A61BB70B881F991F5A95A9F78095909510
:10351000BC01CD01089597FB072E16F4009407D047
:1035200077FD09D00E94771A07FC05D03EF49095EC
:1035300081959F4F0895709561957F4F0895A1E201
:103540001A2EAA1BBB1BFD010DC0AA1FBB1FEE1F1D
:10355000FF1FA217B307E407F50720F0A21BB30B68
:10356000E40BF50B661F771F881F991F1A9469F7E4
:1035700060957095809590959B01AC01BD01CF0140
:1035800008950F931F93CF93DF938230910510F42A
:1035900082E090E0E091E803F091E90320E030E080
:1035A000C0E0D0E023C04081518148175907A8F0FE
:1035B0004817590761F482819381209719F09B8302
:1035C0008A832EC09093E9038093E80329C02115D4
:1035D000310529F04217530710F0A90102C0BE01BE
:1035E000DF0102811381EF019A01F8013097D9F6CA
:1035F0002115310509F1281B390B2430310590F4D0
:1036000012968D919C9113976115710521F0FB0124
:103610009383828304C09093E9038093E803FD01C0
:10362000329644C0FD01E20FF31F81939193225023
:1036300031092D933C933AC02091E6033091E70382
:10364000232B41F420910401309105013093E703CD
:103650002093E603209102013091030121153105E9
:1036600041F42DB73EB74091060150910701241B4C
:10367000350BE091E603F091E703E217F307A0F4BE
:103680002E1B3F0B2817390778F0AC014E5F5F4FB8
:103690002417350748F04E0F5F1F5093E703409300
:1036A000E6038193919302C0E0E0F0E0CF01DF9167
:1036B000CF911F910F910895EF92FF920F931F9357
:1036C000CF93DF93009709F48EC0DC011297139615
:1036D0001C921E921297E090E803F090E903E11427
:1036E000F10489F42D913C911197280F391F809195
:1036F000E6039091E7038217930789F5B093E703F8
:10370000A093E60370C0E70120E030E001C0EA01C9
:10371000CA17DB0738F44A815B819E0141155105C8
:10372000B1F722C0AC0142505109FA01D383C283E0
:1037300000811181BC01600F711F6C177D0761F45E
:1037400068817981600F711F6E5F7F4F7183608325
:103750006A817B81738362832115310529F4B093DB
:10376000E903A093E8033FC0F901B383A283E90111
:1037700049915991C40FD51FAC17BD0771F4DC01F5
:103780009E918E91840F951F02969183808312964D
:103790008D919C91139793838283A0E0B0E002C047
:1037A000D7017C01F701828193810097C9F7C70196
:1037B000029620813181820F931F2091E603309180
:1037C000E7032817390779F4109729F41092E903D1
:1037D0001092E80304C013961C921E921297F09266
:1037E000E703E092E603DF91CF911F910F91FF90E5
:1037F000EF9008958F929F92AF92BF92CF92DF92F7
:10380000EF92FF92CF93DF93EC01688179818A81F7
:103810009B81611571058105910521F464E279EDC3
:103820008BE597E02DE133EF41E050E00E944A1F25
:1038300049015A019B01AC01A7EAB1E40E94371F7C
:103840006B017C01ACEEB4EFA50194010E94451F11
:10385000C60ED71EE81EF91EF7FE06C081E0C81A84
:10386000D108E10880E8F80AC882D982EA82FB829E
:10387000E894D7F8EE24FF24C601DF91CF91FF90A2
:10388000EF90DF90CF90BF90AF909F908F90089572
:103890000C94FA1B88E091E00C94FA1BA0E0B0E0D5
:1038A0008093080190930901A0930A01B0930B0142
:1038B0000895FB01DC0105900D920020E1F70895C9
:1038C0000F931F93CF93DF93CDB7DEB760970FB6FB
:1038D000F894DEBF0FBECDBF0F89188D86E08C83B4
:1038E0001A8309838FEF9FE79E838D83AE01455E28
:1038F0005F4F588B4F87698D7A8DCE0101960E945C
:10390000911CEF81F885E00FF11F108260960FB6D1
:10391000F894DEBF0FBECDBFDF91CF911F910F9105
:1039200008952F923F924F925F926F927F928F9263
:103930009F92AF92BF92CF92DF92EF92FF920F933E
:103940001F93CF93DF93CDB7DEB72C970FB6F894C4
:10395000DEBF0FBECDBF7C016B018A01FC01178267
:103960001682838181FFC7C188248394912C8C0E99
:103970009D1EF7019381F60193FD859193FF81913F
:103980006F01882309F4B3C1853239F493FD859121
:1039900093FF81916F01853229F4B70190E00E9475
:1039A000AD1EE7CF712C312C20E02032A8F48B32F1
:1039B00061F028F4803251F0833271F40BC08D3203
:1039C00039F0803349F4216028C02260246025C08A
:1039D000286023C0206121C027FD27C0382F305325
:1039E0003A3078F426FF06C0FAE07F9E300D1124AD
:1039F000732E13C08AE0389E300D1124332E2062BE
:103A00000CC08E3221F426FD72C1206406C08C36B3
:103A100011F4206802C0883641F4F60193FD8591C7
:103A200093FF81916F018111C0CF982F95549330EE
:103A300018F09052933028F40C5F1F4FFFE3F98386
:103A40000DC0833631F0833771F0833509F05EC0E5
:103A500023C0F801808189830E5F1F4F6624639421
:103A6000712C540115C02801F2E04F0E511CF801D1
:103A7000A080B18026FF03C0672D70E002C06FEF09
:103A80007FEFC5012C870E94A21E3C0182012C857C
:103A90006FE7262E222218C02801F2E04F0E511C9B
:103AA000F801A080B18026FF03C0672D70E002C03E
:103AB0006FEF7FEFC5012C870E94971E3C012C857C
:103AC00050E8252E222A820123FC1CC006C0B70123
:103AD00080E290E00E94AD1E3A94832D90E068163B
:103AE0007906A8F30FC0F50127FC859127FE819187
:103AF0005F01B70190E00E94AD1E31103A94F1E0F1
:103B00006F1A71086114710471F7EEC0843611F0F8
:103B1000893641F5F80127FF07C0608171818281F4
:103B200093810C5F1F4F08C060817181882777FDEA
:103B30008095982F0E5F1F4F4FE6642E622297FFED
:103B400009C090958095709561957F4F8F4F9F4FDD
:103B5000F0E86F2A2AE030E0A4010E94D91EA82EC6
:103B6000A81844C0853731F43FEEB32EB2222AE0C4
:103B700030E024C099EFB92EB2228F36B9F020F48C
:103B8000883509F0B4C00DC0803721F0883709F0BE
:103B9000AEC002C020E1B22AB4FE0BC084E0B82A55
:103BA00008C024FF09C0E6E0BE2A06C028E030E0D5
:103BB00005C020E130E002C020E132E0F801B7FEAC
:103BC00007C060817181828193810C5F1F4F06C0A5
:103BD0006081718180E090E00E5F1F4FA4010E9420
:103BE000D91EA82EA8188FE7682E6B2066FE0BC082
:103BF000362D3E7FA71450F464FE0AC062FC08C054
:103C0000362D3E7E05C0BA2C362D03C0BA2C01C01D
:103C1000B72C34FF0DC0FE01EA0DF11D8081803309
:103C200011F4397E09C032FF06C0B394B39404C0C6
:103C3000832F867809F0B39433FD14C030FF0FC092
:103C40007A2CB31460F4730C7B18B32C08C0B70142
:103C500080E290E03C870E94AD1EB3943C85B31493
:103C6000B0F304C0B31410F43B1801C0312C34FF7E
:103C700012C0B70180E390E03C870E94AD1E3C85F6
:103C800032FF1EC031FF03C088E590E002C088E724
:103C900090E0B7010CC0832F867891F031FD02C00F
:103CA00080E201C08BE237FD8DE2B70190E00E9417
:103CB000AD1E06C0B70180E390E00E94AD1E7A946D
:103CC000A714C0F3AA94F401EA0DF11DB701808195
:103CD00090E00E94AD1EA110F5CF06C0B70180E2B2
:103CE00090E00E94AD1E3A943110F8CF42CEF70119
:103CF0002681378102C02FEF3FEFC9012C960FB606
:103D0000F894DEBF0FBECDBFDF91CF911F910F9111
:103D1000FF90EF90DF90CF90BF90AF909F908F90EB
:103D20007F906F905F904F903F902F900895FC018F
:103D30000590615070400110D8F7809590958E0FD6
:103D40009F1F0895FC016150704001900110D8F749
:103D5000809590958E0F9F1F08950F931F93CF937B
:103D6000DF938C01EB018B8181FD03C00FEF1FEF0F
:103D70001AC082FF0DC02E813F818C819D81281742
:103D8000390764F4E881F9810193F983E88306C077
:103D9000E885F985802F0995892B41F78E819F81D0
:103DA00001969F838E83C801DF91CF911F910F9160
:103DB0000895FA01AA27283051F1203181F1E894C1
:103DC0006F936E7F6E5F7F4F8F4F9F4FAF4FB1E00E
:103DD0003ED0B4E03CD0670F781F891F9A1FA11D09
:103DE000680F791F8A1F911DA11D6A0F711D811D0A
:103DF000911DA11D20D009F468943F912AE0269FCF
:103E000011243019305D3193DEF6CF010895462F2D
:103E10004770405D4193B3E00FD0C9F7F6CF462F0E
:103E20004F70405D4A3318F0495D31FD4052419377
:103E300002D0A9F7EACFB4E0A69597958795779534
:103E40006795BA95C9F700976105710508959B01BB
:103E5000AC010A2E06945795479537952795BA9544
:103E6000C9F7620F731F841F951FA01D08950E943C
:103E7000661FA59F900DB49F900DA49F800D911D6E
:103E800011240895B7FF0C94371F0E94371F821B1F
:103E9000930B0895052E97FB16F4009407D057FD59
:103EA0000DD00E949F1A07FC09D07EF49095809552
:103EB000709561957F4F8F4F9F4F08955095409516
:103EC000309521953F4F4F4F5F4F0895A29FB0010E
:103ED000B39FC001A39F01D0B29F700D811D11241B
:083EE000911D0895F894FFCF35
:103EE80001000000EA0320000100000000000000BB
:103EF80000000000000001000100000000000100B7
:103F080001000000000000000000000000000100A7
:103F18000000000000000100000000000000010097
:103F28000000000000000100000000000000010087
:103F38000100000000000100000000000000010076
:103F48000000000000000000000000000000010068
:103F58000100000000000000010000000000000057
:103F68000100000000000000000000000000000048
:103F78000100000000000100010000000000010035
:103F88000000000000000000000000000000010028
:103F98000000000000000100010000000000000017
:103FA8000100000000000000000000000000000008
:103FB80000000000000000000100000000000100F7
:103FC80001000100000000000000000052756E6E44
:103FD800696E672044656D6F2E2E2E2000202020EC
:103FE8002020202020202020202020202000524592
:103FF800442020203A202532642020202020202020
:104008002000475245454E203A2025326420202082
:104018002020005245442020203A202532642020C8
:104028002020202020202020202020004752454505
:104038004E203A20253264202020202020202020D5
:104048002020005052455353204120425554544F8C
:104058004E20202020202000413A474F2042414353
:104068004B204D454E5520202020202000423A521A
:10407800455354415254205445545249532020200A
:02408800200016
:00000001FF
